S01B00006275696C642F72656C656173652F7A69676265652E73333714
S214004000081000200D790000A1C00000A34903009D
S214004010A3490300A9C00000B1C00000A3490300E3
S214004020A3490300A3490300A3490300A3490300CF
S214004030B5C00000348F0400A3490300A349030061
S214004040A3490300A3490300A34903002574000005
S214004050A3490300A3490300A3490300A34903009F
S214004060A3490300A3490300B5C50000A349030004
S214004070A3490300A3490300A3490300A34903007F
S214004080A3490300A3490300A3490300A34903006F
S214004090A3490300A3490300A3490300A34903005F
S2140040A0A3490300D57C0000B97C0000A3490300A7
S2140040B0A3490300A3490300A34903000515020012
S2140040C095A5030091A50300690C0200ABA50300AB
S2140040D099A50300C51402009DA50300F9F8010088
S2140040E045150200A3490300A3490300A3490300A2
S2140040F0A3490300A3490300A3490300A3490300FF
S214004100A3490300A3490300A3490300A3490300EE
S214004110A3490300A3490300A3490300A3490300DE
S214004120A3490300A3490300A3490300A3490300CE
S208004130A349030097
S214004134F0B5114A114C124E00F00105E3695F0711
S21400414413D40DB9334213D103EA00078F4207D1C3
S2140041540B4A1A40002A14BF6FF001000020F0BD7D
S214004164013AEBD16FF00200F9E74FF0FF30F6E7C3
S2140041746FF00100F3E700BF80969800000003503C
S214004184020001000B4B70B5D96911F480310DD1D2
S21400419401244FF48072084E084DF46020462C64C7
S2140041A41A61FFF7C5FF3464EC6070BD6FF0010060
S2140041B4FBE700BF0000035000100350002003502C
S2140041C438B541F6713301220C4C0021E569E363EE
S2140041D40B4B05F48035DA600223606121202361ED
S2140041E4FFF7A6FF10B92120FFF7A2FF0122054B17
S2140041F4DA600DB10023E36338BD00BF000003504E
S214004204001003500020035070B5134C6061E3693E
S2140042145B071ED40E4656F8043B8D18A361AE42C7
S2140042240BD10423002121202361FFF781FF58B915
S214004234BDE870402120FFF77BBF08210846FFF742
S21400424477FF10B10423236170BD56F8043BA361C5
S214004254E5E74FF0FF30F7E7000003502DE9F84399
S214004264154641F67132164B8946DF69DA63012238
S214004274064603F58053DFF8508007F48037DA608B
S21400428455B9284601220F4BDA601FB10022A3F568
S2140042940053DA63BDE8F88306F5005404EA08041C
S2140042A4A41BAC4228BF2C46494622463046FFF79C
S2140042B4ABFF0028E6D12644A1442D1BE0E700BF4F
S2100042C4000003500020035000E0FFFF45
S2140042D02DE9F04F4FF0FD0BC9B09A460DF11B09C2
S2140042E09DF8503108AFCDF80C90CDF808B0019786
S2140042F0059303890446009383790E4690464188C9
S2140043008288407811F01CFE054650B10090A388C4
S214004310002062883A4912F057F9284649B0BDE8AD
S214004320F08F99F8000033F053FC38B12846A38884
S2140043306288344912F048F98D25EEE75A46394628
S21400434099F8000033F0ECFB8346002851D0529BCE
S2140043501BB1BDF84C3198424BD8002399F8009019
S2140043600793A9F14102012A5FFA8BF123D8384658
S2140043700139254ADFF898C05FFA81FE734513DBE2
S214004380059B04210792C3B907AF18221F489FED6B
S2140043901A7B02FB060420460A460830394684ED9E
S2140043A0027B16F067FE11E010F8011F0133514042
S2140043B00CFB01F2E2E7059B33B123464A4638463A
S2140043C000960FF0E5FCA8E70829DED9B8F1000F43
S2140043D001D088F80090BAF1000F01D0AAF800B01A
S2140043E0529B002B99D05A46184608A916F042FE52
S2140043F093E7012591E700BF0000000000000000E1
S214004400C7380400FC380400C59D1C8180100020BD
S21400441093010001000000002DE9F04F93B0CDE9B4
S2140044200A32DDE91C530E9353EC102BCDE908013C
S214004430104619468DED060B1E9E16F0A5F880B1A7
S214004440DDE906014FF0FF32C54B16F0C5F840B95E
S214004450DDE906014FF0FF326FF4801316F09EF888
S21400446070B1DDE908019DED060B0E9B1E96CDE9A9
S2140044701C53DDE90A3213B0BDE8F04F00F088B9EE
S2140044800022DDE90601002316F088F8002800F077
S2140044903381DDE906A303F1004BCBF30A5016F493
S2140044A08063A0F2FF3008BF06250F9315F09AFD33
S2140044B09BA3D3E9002315F0FFFD9BA3D3E90023BC
S2140044C015F044FCCBF31304894644F07F51804634
S2140044D00022A44B504641F4401115F035FC94A33D
S2140044E0D3E9002315F0E8FD02460B464046494650
S2140044F015F02CFC16F07AF8044615F073FD8EA322
S214004500D3E900238046894615F0D6FD0022964B57
S21400451015F01CFC16F06AF889A3D3E900230746B9
S2140045204946404615F0C8FD80463846894615F08F
S21400453059FD85A3D3E9002315F0BEFD02460B46C0
S2140045404046494615F000FC02460B46CDE90C23D2
S21400455015F0B2FDDDE90C23804689461046194663
S21400456015F0F4FB0022CDE91001804B4046494689
S21400457015F0CCFE00227E4B15F0E8FB02460B46FB
S2140045804046494615F0C2FE00227A4B15F0DEFB87
S21400459002460B464046494615F0B8FEDDE90C23B8
S2140045A08046894600204FF0804115F0CDFB02463C
S2140045B00B464046494615F0C9FB02460B46DDE968
S2140045C0100115F0A3FE07F2FF3700226A4B15F024
S2140045D0BDFB00223B0515F06FFD52465B4680464C
S2140045E0894615F0F9FF002840F08980CDE90C894E
S2140045F004F16303C62B8CBF0527042731051BD5A2
S21400460053A3D3E900235046594615F0DBFF002894
S2140046107FD051A3D3E900235046594615F0BEFF7C
S214004620002876D00027A542C6BF2C1B04F1FF3514
S21400463000253C4646F480660E9B9F422CBF4FF0FA
S2140046400008A3EB070816F0020903D0002F18BFD6
S2140046504FF000083CB1DDE90C235046594615F0F2
S21400466055FE82468B46DDE906010022002315F042
S21400467095FF10B10BF100439B46DDE9080126F4D7
S2140046800063CDE90183DDE90A324BEC10AB0095FF
S21400469000F07EF802465FB3DDE9091316F0200F3E
S2140046A000F10105089E0CBF65204520B047DDE9F6
S2140046B008010523002205930A23002CCDE90232C7
S2140046C007F1FF374FEAD473B8BF64422A46019316
S2140046D004970A9B009435F0D5F80246B9F1000F0E
S2140046E006D00B9BC41A0B9B1A190E9BA34245D8E7
S2140046F0104613B0BDE8F08FDDE906ABCDE600222C
S214004700404649461A4B15F001FE013CCDE90C0126
S2140047106EE7002D90D00F9B002B8DD0013D8BE7D0
S214004720FB799F501344D33FB3C8608B288AC63F9B
S21400473061436F63A787D23F71A379094F930A40FD
S2140047401655B5BBB16B0240EF39FAFE422EE63F76
S2140047502D431CEBE2361A3F0000000080842E41F9
S214004760FFFFEF7F0000F83F0000E03F00002C4016
S21400477000002440000018400000F03F2020DDE943
S2140047800913089DA8470134ADE700BF00000000EC
S2140047902DE9F04F5BEC10AB97B0CDE90501DDE9F4
S2140047A02058CDE90723504652465B465946229F7D
S2140047B015F0EAFE70B90323CDE902870193AA4BF0
S2140047C00093DDE90501DDE9072334F08DFF17B01E
S2140047D0BDE8F08F4FF0FF326FF480135046594615
S2140047E015F0DCFE28B10423CDE9028701939F4B28
S2140047F0E6E74FF0FF32504659469D4B15F0ECFE6B
S21400480068B19C4A07F00403002B08BF03229A4BAA
S2140048101CBF13460422CDE902870192D0E750461A
S2140048208DA3D3E90023594615F0D6FE38B98CA3DC
S214004830D3E900235046594615F0B0FE68B1DDE9CD
S2140048400723DDE905014BEC10ABCDE92187209568
S21400485017B0BDE8F04FFFF7DFBD0022002350463B
S214004860594615F09BFE002800F091805B465246A4
S2140048700020002115F068FA012382468B46099332
S21400488017F4806400F08580092D40F285800024AE
S21400489030210EABA5F109020134202C03F8011BD0
S2140048A0A5EB040901D09442F6D15946504615F0BE
S2140048B09DFE724B054603EBC90393ED007B8DED21
S2140048C00A7B15F08FFB02460B465046594615F0FC
S2140048D03BFADDE90A2315F0EFFB02460B46CDE96D
S2140048E00C2315F0ABFE064615F06CFB02460B4695
S2140048F0DDE90C0115F028FA02460B46CDE90C233B
S21400490000225F4B15F068FE002848D0013630467E
S21400491015F058FB02460B46DDE90A0115F048FE85
S21400492008B100260135B9F1000F45D1284615F02B
S21400493059FB02460B465046594615F005FA00222A
S2140049404F4B15F02BFE10B9E90700D501350A21AB
S2140049500EAB1A19202C0AD095FBF1F001FB10556E
S214004960303502F8015B013405460028F2D107F025
S2140049700302012A55D1B8F1000F52D0099A12B994
S21400498017F00C0F01D008F1FF38302240E00990F4
S21400499076E74FF0060988E7A946002485E7002257
S2140049A0DDE90C01364B15F0F9FD0028BBD10EB140
S2140049B0F007B8D50136B6E70A210EAB1A19202C37
S2140049C00DD0B6FBF1F001FB1063092E03F13003A6
S2140049D009F1FF3904F1010402F8013B11D8302136
S2140049E0A1440EAA202CB2D04C4504F101030AD1F2
S2140049F004F158020DEB02042E2204F8202C1C466B
S214004A00A5E70646DBE7A1541C46EBE71A5501343A
S214004A10444506D2202CF9D1CDE9028701940EAB8D
S214004A20CEE6202CF8D0099B3BB12D2204F158038A
S214004A306B4403F8202C0134EEE77A0704D504F122
S214004A4058032B226B44F4E73B07E5D504F15803E3
S214004A5020226B44EDE700BF0000000065CDCD418D
S214004A600000000065CDCDC1B6560400BA5604005D
S214004A70FFFFEF7FAD560400B2560400709E0400A0
S214004A800000E03F0000000070B58EB02C22002130
S214004A9003A816F05FF964234FF002320893CDE9BD
S214004AA005230B2301218DF834305B4B8DF8101055
S214004AB01D880D4040F0A980084639F0A1F90A2269
S214004AC0564B574C1A704FF42873ADF812304FF00F
S214004AD0FF332360534B54491B8820460B82534BAD
S214004AE0534A1B68CD828B61524B0D621B884B82EA
S214004AF0514B1B68CB611CF09BFD20B14FF41B7122
S214004B004E483AF0BEFA0521206835F0A4F820B1E8
S214004B1040F27D2149483AF0B4FA206815F0D0F802
S214004B20474B2068196835F059F90C2539F0D0FD47
S214004B306843099039F0CCFD68430DEB05010790FA
S214004B40206816F0C9FF20B140F295213B483AF0A4
S214004B5098FA25681FF016F900220146284635F017
S214004B60B5F920B140F2972134483AF08AFA40F27B
S214004B700353344D344E2B80052396F90000AB705A
S214004B807F2801D11CF04AFE3378EB7039F0A0FD87
S214004B9000EB80008000A88039F09AFD0023C0005A
S214004BA04FF0FF31E880AB604FF0FF3018A3D3E939
S214004BB0002339F077FA2549206835F040F9206857
S214004BC002A935F05CFD20B14FF434711B483AF071
S214004BD058FA042220680DEB020135F0D4F80428B8
S214004BE004D040F2D72115483AF04BFA01A901202B
S214004BF034F0DFFC07F098FA01201DF0A1FA30F03F
S214004C00C8FC1DF0C7FA1CF0A1FD0EB070BD00BFB9
S214004C100A0020FF42030000525C0020AA63002026
S214004C2084540020A2B70400646A0020A8B70400D9
S214004C3029DE0300A0B70400A4B70400E58D040035
S214004C40B467002078540020826D00209DDE0300AB
S214004C500348044B834202D0034B03B11847704706
S214004C60B46D0020B46D002000000000064B07491C
S214004C70C91A891048BF0131491003D0044B0BB143
S214004C8001481847704700BFB46D0020B46D00207F
S214004C900000000010B5064C237843B9FFF7D8FF94
S214004CA0044B13B10448AFF300800123237010BDFA
S214004CB0681600200000000048DB040008B5044B1E
S214004CC01BB104490448AFF30080BDE80840CDE7B7
S214004CD0000000006C16002048DB0400A3F5803AB4
S214004CE0704700BF154B002B08BF114B9D46FFF7C2
S214004CF0F5FF00218B460F461148124A121A16F08D
S214004D0029F80C4B002B00D098470B4B002B00D0FB
S214004D1098470020002104000D000B4816F060FBA9
S214004D2015F0F0FF200029002FF06AFB16F046FB76
S214004D30000008000000000000000000081000202E
S214004D40081000201064002049B4010007B50121B6
S214004D5020200DF1070201F027F850B10121202094
S214004D600DF107028DF8071001F02EF803B05DF87C
S214004D7004FB9DF807100129F8D00122084814F01A
S214004D80D7FE01210DF1070220208DF8071001F053
S214004D901BF82FF0B7FA4FF4FA6000F04FFEE5E785
S214004DA0C8F4030038B501F097F9012805D001F0E2
S214004DB093F9022801D001F0B5F9064D2B783BB9DE
S214004DC001F08AF90128044602D12FF010FB2C705E
S214004DD038BD00BF3E5D002010B5044600882FF0A9
S214004DE065FAA37884F84400834202BF0123E37087
S214004DF02371074B04F11C00C4E9073401F02AF8BC
S214004E00224620880349BDE8104000F067BF00BF77
S214004E10434003000D40030070B5C37804460D46BA
S214004E201646002B34D1D1B1214814F081FE01235F
S214004E30E370E36CA6600BB1E06D9847E368F61A82
S214004E4063699E4221D2217E1A480131C9B2217679
S214004E5014F06EFEA36D13B1217EE06D9847E570E9
S214004E602FF063FA15B3237903BBA268238A801A4E
S214004E7083421BD801231048237114F059FE236D7A
S214004E80A3B1E06DBDE87040184701232376E6E73E
S214004E900029E4D1094814F04BFE636DE660E57026
S214004EA02571002BDBD0E06D9847D8E770BD00BFBA
S214004EB0F0F4030001F503002FF503001CF50300D2
S214004EC070B51E46838804460D46C18002810BB12C
S214004ED0868070BD817800882FF0D4F80123E370B7
S214004EE0064BA680C4E903340C34204600F0B2FF1B
S214004EF029462046BDE870402FF00EBA8F400300CA
S214004F0010B501790446B1FA81F1008849092FF0FD
S214004F1030F921796088B1FA81F149092FF029F931
S214004F20034B1A68A24204BF00221A6010BD00BFDD
S214004F308416002070B543790446A3B100880E4E4F
S214004F4004F10805336813B10C4B1B786BB121795B
S214004F502FF00FF964210A4B3460A3602846BDE8A1
S214004F6070402FF0D9B94088E9E7064814F0E0FD14
S214004F70054B3221A360F1E7841600203F5D002038
S214004F80014F000045F50300354F000010B50446FC
S214004F90E0B10F4814F0CCFD01236371A37953B937
S214004FA0217920882FF0E5F8236B7BB1606B012117
S214004FB0BDE8104018472046FFF7A2FF04F108009E
S214004FC02FF0AFF92046FFF7B5FFEDE710BD00BFA5
S214004FD07BF5030010B50446F8B1104814F0A8FDA0
S214004FE000236371A3796BB921792088B1FA81F126
S214004FF049092FF0BEF8236B7BB1606B0021BDE83A
S214005000104018472046FFF77BFF04F108002FF0FA
S21400501088F92046FFF78EFFEDE710BD86F5030002
S21400502010B5044668B1074814F082FD637920463F
S2140050301BB1BDE81040FFF7CDBFBDE81040FFF73D
S214005040A5BF10BD92F5030010B50E4C0E482146C4
S21400505014F06EFD82210D4814F06AFD82210220B4
S214005060A21E00F0B1FE014630B134F8022C08480A
S214005070BDE8104014F05CBD0648BDE8104014F0D2
S21400508057BD00BFD6550020A1F50300BCF50300B0
S214005090C7F503000BF6030038B5114C82212246F3
S2140050A0022000F081FEA51C014688B122880D482A
S2140050B014F03EFD2A460C4B03F1240153F8040B72
S2140050C08B4242F8040BF9D11B78137024232380FB
S2140050D035F8021C054A0648BDE8384014F028BDDD
S2140050E0D455002016F6030096F60300D655002089
S2140050F074F60300034B1B781BB18B4201D82FF0CC
S21400510001B97047226D002010B5044601460E48CE
S21400511014F00EFD012C11D10C4B0D481A884FF6D9
S214005120FF739A421EBF0022094B5A742FF007F8ED
S21400513001F09AFDBDE8104001F06CBC0448BDE8E3
S21400514010402EF0FEBF00BFBBF60300D46C00205C
S2140051504067002070B500241A4D1B4E3378A342DA
S2140051601BDC0024194D1A4E3378A3421BDC0024A6
S214005170184D194E3378A3421BDC00F0ADFF012812
S21400518016481CD12EF0DBFF01F06EFD01F042FC4C
S214005190BDE87040124800F0BFBF2846FFF71CFE6F
S2140051A001346035DAE728462EF0AFFF0134343597
S2140051B0DAE728462EF0E2FF01343835DAE72EF03B
S2140051C0C0FFE5E7B8210020455D0020D825002077
S2140051D0465D0020881F0020445D002040670020B8
S2140051E0095100002DE9F04F87B0FFF755FFB34B8C
S2140051F005A805932EF0E6FF054615F0A7FCB04C73
S214005200C2B21F2A627004D9AE4814F091FC00F0B6
S21400521009FC2946A01C15F02DFF05A82EF0D2FF8C
S214005220054615F093FCC2B21F2A84F8212001D946
S214005230A548EAE7294604F1220015F01BFF05A859
S2140052402EF0C0FF3226044600272578002D40F0B9
S21400525092809E4CFFF77EFF2378DFF8ACA2DFF843
S214005260AC829B4E00939AF8003098F80020317874
S214005270984814F05DFC327898F800109AF8000010
S21400528053180344944F20782C4603443846DBB228
S214005290AA4200F3D782012B38BF0123DFF840B2C1
S2140052A002935A4600235D464FF482714FF6FF7410
S2140052B002980133834213705180948002F10C02ED
S2140052C0F6DB864B86497E48AB6000F0DBFFE8796C
S2140052D0AB6800EB400003EB800000F0AFFDEB791D
S2140052E00133EB717F4B1B88A34203D07C497E4879
S2140052F001F0CAF84FF00009784C32784A4500F3BE
S214005300CB8200274FF00C09784ADFF8D4B198F822
S21400531000003178B84200F3D48247180C210025EB
S21400532001FB07B19AF800009423A842704A00F3E4
S214005330E6820C2598F8003000274FF07008367883
S214005340DFF8CCA11E44064405FB06B55F4B1B7870
S214005350BB4200F3E7820299614800F0FDFD059B21
S21400536056491A468B4240F0F082624807B0BDE8C4
S214005370F04F14F0DDBB532D0FD163784C2B40F06B
S2140053804781A378502B40F0438101225A4B1A7074
S21400539005A82EF017FF044657E7442D13D163786F
S2140053A0303B092BF4D8601C2EF019FF534B544A9F
S2140053B01978002386B2994202F16002E8DD22F8ED
S2140053C0466C0133F7E7422D0BD16378542B55D149
S2140053D0A01C00F0D1FC434B188018462EF0F3FDBD
S2140053E0D6E7582D34D8412DD2D9433D152DCFD8E8
S2140053F001A353F825F000BFB357000091530000F7
S2140054009153000091530000915300009153000007
S214005410635500009153000091530000155500009D
S2140054206354000091530000915300009153000014
S214005430915300009556000011560000915300004D
S2140054409153000091530000915300000B57000049
S214005450692D9DD1601C2EF0C2FE80B22EF04EFF4C
S21400546096E71B4B0120197800231B4A994202F14C
S214005470A8028DDD02F8A60C0133F7E7601C00F0E9
S2140054807BFC0546E01C2EF022FF01210246284642
S2140054902EF0D9FE60211948194C0378594362183A
S2140054A065524FF4FA6111824FF448715161154903
S2140054B056831165013303706AE700BFD655002096
S2140054C054660020DAF60300F1F60300405D002083
S2140054D0435D002001F70300DC1C0020501700206D
S2140054E0D8160020D46C002088160020DC1B002074
S2140054F0201A002051F703003F5D0020455D002084
S214005500B8210020AF410300415D0020425D00202D
S214005510D0180020601C00F02FFC00224FF034084A
S2140055208146CD4F11462EF08EFE3878CB4D08FBC7
S21400553000F325F80390EA18E3781046693B18BF95
S214005540012393702EF0E1FD0021C54A3B7851609F
S214005550012103FB08550B443B7015600F46117480
S21400556016E7601C00F008FC0022114681462EF06B
S2140055706AFE3422B84DDFF8E482287802FB00F396
S21400558028F8039008EB0301E3780846693B18BF48
S21400559001238B702EF0B9FDB24A00231046916BA2
S2140055A031BB00EB831034232A7802FB038383632A
S2140055B0AD4A00231046D2F8A410F9B9A82202FB7F
S2140055C0030034232A7802FB0383C0F8A4305FB9B3
S2140055D0A34A3B46114652F8040BA8B93422287851
S2140055E000FB028241F823202B7801332B70CFE694
S2140055F00133042B02F14002D1D1D9E70133042B49
S21400560002F1A802D7D1E2E70133042BE3D1EBE79E
S214005610601C00F0B1FB8046E01C2EF058FE012115
S214005620024640462EF00FFE60219048904D0278CC
S214005630DFF858C251436B1825F801804FF44871C3
S214005640198259618B495E839965E178A82464299B
S21400565004BF012199709CF80030DFF80CE25C432F
S2140056600EEB04010EF804304FF400744C80032453
S2140056700C718C7102EB420405EB441532240133A5
S214005680DBB201324B718D6081F8A04002708CF85D
S21400569000307DE6601C00F06FFB00224FF0380AF9
S2140056A08146DFF8E08111462EF0CDFD98F80030F7
S2140056B0714D0AFB03F325F803904FF00109EA1831
S2140056C082F80490E37873B1E01C00F055FB0022EA
S2140056D0044611462EF0B7FD98F800300AFB035337
S2140056E05C8083F8069065485E4A037899015354B7
S2140056F098F8001002EB8314C1EBC10205EBC2055B
S2140057004A1C656388F80020D4E6601C00F034FB71
S2140057108046E01C00F030FB0546601D2EF0D7FDED
S21400572004460246012140462EF08DFD22462846BC
S21400573001212EF088FD60204FF4487CDFF82CE134
S2140057404B4A9EF8003000FB03F422F80480DFF892
S21400575024811119A1F810C0C1F814C04E83C1F8F5
S2140057605880591CC9B248431418A4F810C0C4F88D
S21400577014C06683C4F8588094241552404D981C73
S2140057808EF800002878DFF808C1444303EB430393
S21400579001EB41010CEB040E02EB431302EB41124A
S2140057A00CF80400CEF80430CEF80820013028703B
S2140057B0EEE5601C00F0E0FA8046E01C00F0DCFA43
S2140057C000220546114640462EF03DFD00223824B4
S2140057D0114628462EF037FD2A48274A03784FF010
S2140057E0000E04FB03FC22F80C804FF0010802EBCD
S2140057F00C0181F806E081F8048003EB0801C9B2C9
S2140058004C4302EB040C15539C1C047070241E4D74
S2140058108CF806E028788CF804804443DFF874C0DF
S214005820C3EBC303C1EBC1010CEB040E02EBC303D5
S21400583002EBC1020CF80400CEF80430CEF80820C3
S2140058404044B4E790F805C001358C4584BF047128
S2140058504471A8301CE500BF465D0020D825002016
S21400586040670020DC1B0020DC1C0020455D00207B
S214005870B8210020F5500000881F0020425D00205F
S214005880415D0020445D0020405D0020435D002017
S214005890201A0020D0180020B9F1000F07D01BF8FE
S2140058A0052C02EB420204EB8204CBF80840594672
S2140058B0384601F0ADFB09F10109A8370BF10C0BD6
S2140058C01BE579180AD0481E09FB00B0C07900EB2A
S2140058D0400004EB800409FB01B08460104609FB1D
S2140058E00151039201F052F931781C48394409FB02
S2140058F0015101F075F8039A0137403207E5FD4281
S21400590018BF11F8050C03911EBF00EB400004EB16
S21400591080048C6003FB052000F07AFF03990135B4
S2140059200C31FFE4F74218BF15F8053C29461CBFAA
S21400593003EB430304EB830408FB07A018BFAC602B
S21400594000F03CFE01370C3500E513F8011D002978
S2140059507FF406AD3B2102F8011C01E57C1F002008
S21400596007B5012121200DF1070200F01DFA18B934
S2140059709DF80720024B1A7003B05DF804FB00BFC9
S214005980226D002007B5064B8DF807001870012120
S2140059900DF10702212000F017FA03B05DF804FBB2
S2140059A0226D002007B5022101200DF1060200F04D
S2140059B0FBF938B9044814F0BBF8BDF8060003B08C
S2140059C05DF804FB0020FAE76EF7030007B5022136
S2140059D0ADF806000DF10602012000F0F5F90146CB
S2140059E010B1034814F0A4F803B05DF804FB00BF40
S2140059F08FF7030010B5FFF7D5FF044601460748AA
S214005A0014F096F80121064814F092F824B9BDE87F
S214005A1010400120FFF7DABF10BD00BFBFF703003C
S214005A20D1F7030008B5044814F082F800F0DCF95A
S214005A302EF068FC2EF063FCE7F7030038B504464A
S214005A40084D094B28462B6000F004FA002C18BFBE
S214005A5021462846BDE8384008BF4FF496712EF020
S214005A605BBC00BFDC260020FD4103002DE9F043AF
S214005A70384D91B008AC0746894690460FCD0FC406
S214005A8095E80F00002684E80F0001250323324C1A
S214005A903248CDE90366CDE905668DF80E300796E7
S214005AA0029539F097FA2E4839F094FA32462D4985
S214005AB020468DF8176004F0D3FB334632462A4959
S214005AC08DF81900009020468DF82390CDF82C8094
S214005AD08DF8216004F0DEFB0A9020468DF80970F0
S214005AE004F040FB204608AA05A904F0F9FB02AA28
S214005AF0204603A92FF0A9FC4FF400721B4B5A62F4
S214005B00194BE560626A920510D46BB94FF40072C7
S214005B10164B11485A6204F025FB114839F05DFA1D
S214005B20002011B0BDE8F083013BEBE7002BEDD081
S214005B30094908A82FF0BCFC4FF400720B4B06482E
S214005B405A6204F00FFB064839F047FABDF8200009
S214005B50E7E700BFEC8E04000040005A9491040072
S214005B609091040080841E0040420F000060005A9E
S214005B700122034B1870034B1980034B1A707047B1
S214005B80485D0020DC6C0020475D0020F8B5454BE2
S214005B901B780BB90020F8BD434B1B78012B03D1B3
S214005BA0BDE8F8402EF02DBB404B1C884FF6FF7327
S214005BB09C42EFD03E4839F00DFA0023260AE4B2A4
S214005BC01A462146304604F08DFA012E354604F07A
S214005BD0010335D015D9B51E012DDBD8002B0BBF20
S214005BE04FF480754FF080754FF470614FF0706120
S214005BF00BBF01274FF480370F204FF470202D4B3A
S214005C0011E0002B0BBF4FF480754FF080754FF4FA
S214005C1070614FF070610BBF01274FF480370F2083
S214005C204FF47020244B1A6802401CD0BA421AD097
S214005C301A680A4032D11A6822EA01022A4316E09C
S214005C40002B0BBF4FF480754FF080754FF47061DA
S214005C504FF070610BBF01274FF480370F204FF4D1
S214005C607020164BDFE71A6822EA00023A431A60F1
S214005C702EF0C7FA054600288CD0083644EA0610EF
S214005C802A460321C0B2FFF7F1FE40F6FF736843D1
S214005C9000F2FF70B0FBF3F080B27CE795427FF431
S214005CA079AFC8E7475D0020485D0020DC6C002027
S214005CB09491040028C3035020C3035024C3035008
S214005CC010B5044C237823B9034839F083F901232F
S214005CD0237010BD4A5D0020949104002DE9F04326
S214005CE01F4C85B0074688469146FFF7E9FF2378A4
S214005CF01BB901F0A7FE012323707BBAADF80C3068
S214005D0030220023174E02FB03F4315DA51901BBB8
S214005D10012333554FF0FF3304F11000124930448D
S214005D20AB606F80C5F80480C5F80C9009F01CF9CC
S214005D3004F10801042231440C4B009503A801F03D
S214005D4057FFA96802460A4813F0F2FE05B0BDE800
S214005D50F0830133102BD6D1064813F0E9FEF5E7A1
S214005D60495D002004270020274203003942030033
S214005D70F4F7030022F8030080B10278A2F1410391
S214005D80032B0BD840783038C0B2082806D8054B0D
S214005D90134413F8413C40EA032070474FF6FF7067
S214005DA0704700BF0C8F040008B50B4642B1014691
S214005DB00448006803F060F8BDE808402EF098BA82
S214005DC0022008BDAC67002008B50B4642B101466C
S214005DD00448006803F0D8F9BDE808402EF088BAF9
S214005DE0022008BDAC670020F0B50026124F8DB02B
S214005DF0FF2300930A223346386802A92FF0E2F800
S214005E00C0B102AB1D4603EB800404E055F8043B2A
S214005E10B34228BF5E1CAC423868E9D9296803F053
S214005E2039FB0028F2D02D28F0D00DB0BDE8F040A8
S214005E302EF05EBA0DB0F0BDAC67002028B1034B63
S214005E400360034B43600023836070471900000320
S214005E5054670020FF2307B50021044A009308304A
S214005E6009F006F803B05DF804FB00BF1343030017
S214005E700B460449024608680349097808B12EF023
S214005E805BBA7047102A00204C5D0020F7B50C4620
S214005E9018B12921194839F0F4F8246823685E7986
S214005EA05F8830463946FFF7E3FFF0B18568E5B115
S214005EB0A089227D3946904291BF0020801AA368AF
S214005EC080B294BF03469B18E27C00903046A847F9
S214005ED00138032803D8DFE800F0080F0B0D002474
S214005EE0204632F0DFFB204600E0812003B0F0BD04
S214005EF08024F5E79324F3E78724F1E74AF80300C4
S214005F00F8B515460D4A044610680D4A0B4611783A
S214005F1050B122462EF010FA034628B100210C2775
S214005F20C678B14201DB0020F8BD07FB01F45A68D1
S214005F301019125BAA42F7D00131F2E7102A0020AE
S214005F404C5D002008B5034B1B6803B19847002042
S214005F5008BD00BF0C2A00202DE9F74F04460D4669
S214005F600026454B454F1860454B197033010021FC
S214005F70F85C01360FF0D2FD0C2EF7D10C2D28BFA1
S214005F800C254FF0000901953C4EDFF800A13D4D71
S214005F90DFF8FC80019B4B4502DC03B0BDE8F08FC8
S214005FA023784FF0000B337063887380A388B38028
S214005FB0A379C6F80880B371E379C8F8005088F86A
S214005FC004304FF00003A768A8F80630E3795B4575
S214005FD00ADC012116F8100B0FF0A0FD08F10808E6
S214005FE009F101090C34D5E74FF0000338886B81BE
S214005FF02880FB784FF0000C2B81BA78C5F804A0F7
S214006000002A00920CBF802240222A7379680AF187
S2140060100C02634513DC03EB43030AEB830ABB68FD
S21400602043B1009A4FF6FF71B2FA82F2164B52094C
S21400603032F0C8FA14350BF1010B0C37C6E7B1F88D
S21400604000E00CF1010C22F80CEC91F802E00C32A6
S21400605002F816EC91F804E00C3102F815EC11F891
S21400606009ECBEF1010F14BF4FF0100E4FF0110EE9
S21400607002F814ECCDE700BF102A0020D84000201C
S2140060804C5D0020143000208D5E0000142A002095
S21400609094320020014B1860704700BF082A002089
S2140060A070B5128805460E46FFF72AFF044670B103
S2140060B002790499806814F09FFE064B1B680BB9A2
S2140060C0002070BD3146284622889847F8E786208B
S2140060D0F7E700BF082A002008B50EF0BBFD02282F
S2140060E006D0012806D0044B18784000C0B208BD80
S2140060F00120FCE70220FAE74B5D0020054B10B5B7
S2140061001C682CB1FFF7E8FF2346BDE8104018478F
S21400611010BD00BF042A0020014B1860704700BF66
S214006120042A0020034B1A781AB901221A700AF0C2
S21400613097BD70474B5D00200022024B1A70FFF798
S214006140DDBF00BF4B5D002037B50446002832D0C7
S2140061500EF080FD022830D1608932F020FEE07912
S214006160237A003818BF0120012B637A08BF40F05D
S21400617008000BB140F0100063890BB140F004003A
S214006180257CA188A2790DB1E36873B90C4B10F099
S214006190A1F82178084610F019F932F00CF9002819
S2140061A014BF0320002003B030BDCDE90035054BF9
S2140061B010F090F8EDE70220F5E70120F3E700BFC6
S2140061C0E0450400E314040008B50CF0A7FE014601
S2140061D030B1044813F0ACFCBDE808400DF042BAFC
S2140061E008BD00BFBCF80300034B044A5B7C0121DA
S2140061F003201370FFF7E8BD406700204D5D0020C8
S21400620010B50446FFF7F0FFB4F57F4F0BD100241E
S2140062100F4B1A8813449C70FEF716FF2046BDE805
S2140062201040FFF70BBC4FF601739C4204D1BDE84B
S214006230104008482DF06BBF4FF602739C4205D104
S214006240BDE81040044B1878FFF79CBB10BD00BF9C
S214006250D455002040670020226D002010B5074C62
S214006260012122460320FFF79FFD28B92378044A20
S214006270003B18BF0123537410BD00BF4D5D0020C6
S21400628040670020F8B5564B564C1A884FF6FF73F9
S2140062909A4218BF03234FF0080218BF2370524BD0
S2140062A030251A7032225A70DA70DA7139229D70EF
S2140062B05D7133251A724FF400129D714B4D3626D0
S2140062C0C5644B4D426405654A4D012285654A4DBD
S2140062D01E71C565494D86184566494DC667856673
S2140062E0484D494E0567494D80F8482045672025AA
S2140062F080F8785080F8845000F12105C0F8885066
S214006300434D80F85420C0F88C5080F8602080F808
S2140063106C20C0F8806080F89020C0F89440C0F8E8
S214006320B8303C4B3C4CC0F8BC300223C0F8984018
S2140063303A4C80F8C030C0F8A4400F24384B80F8A0
S214006340A840C0F8C430374B374CC0F8C83082235A
S214006350C0F8AC40354C80F8CC30C0F8B0400924CA
S214006360334B344DC0F8D030334B80F8B440C0F8CF
S214006370D4302C7C314B80F89C20C0F8A00080F8EC
S214006380D820C0F8DC3044B12D4B80F8E420C0F8AB
S214006390E03005F11103C0F8E8304FF0000CCA7980
S2140063A08E6802EB42039F00443006EB830326F818
S2140063B007C0586001200D349870DC701318CB713C
S2140063C0FFF7CEFAFFF74AFFFFF786FE012806D151
S2140063D02B7C23B1BDE8F84016482DF098BEF8BDDA
S2140063E0D46C0020236D00204E5D0020258F040015
S2140063F001002000248F040002002000238F0400E8
S21400640003002000228F0400050042000400420022
S21400641007003000FDFF210012001001004042007E
S214006420208F040000FF4401108F04000600420085
S214006430D45500204067002002FF2001226D002076
S21400644001FF100113B504460D482DF0C7FD642268
S214006450C0F30F43637083B2B3FBF2F3A0782370EC
S214006460202201212DF08AFFA078212201212DF083
S21400647085FF0449201D02B0BDE810402DF04CBF3A
S214006480D46C0020E09304000B7870B583704CF653
S2140064901E0303804FF02013C362012380F83030C0
S2140064A080F83C30C3180364124B0446436402234E
S2140064B0114A80F84830114B8263C3644063CA793E
S2140064C08D6802EB420305EB830004F12C06466060
S2140064D00B4E45F8236000238360531CCB71094B99
S2140064E0201DC4E90134FFF7B5FC2046BDE8704026
S2140064F0FFF7A8BFFDFF210021002000268F040023
S2140065000100010345640000437B044A0121137027
S21400651000781130C0B2FFF757BC00BF585D0020AE
S21400652038B504460078054D11302A460121C0B220
S214006530FFF73AFC08B92B78637338BD585D002026
S214006540024B53F820002DF0E0BF00BFF4320020CD
S214006550012908B506D0022907D049B92DF0CCFF8D
S214006560002008BD2DF0CBFFFAE72DF0CBFFF7E7B4
S214006570024813F0DDFA0120F3E700BFE9F8030054
S21400658010B4054C114654F820001A46BDF80430E5
S2140065905DF8044BFFF7DCBFF4320020002310B593
S2140065A0044683810364A0F844304830FFF752FC69
S2140065B0014BC4E9123410BDF144030038B504465B
S2140065C00B781A4A43700D4642F82300FFF7E6FFA1
S2140065D02046FFF7A5FF4FF4401323610123144A1A
S2140065E02375A261134A84F82030E261124A84F8C7
S2140065F02C306262114A84F83830A26204F10C0230
S21400660022630F4A04F10D036263E363EA79A86824
S21400661002EB420300EB830110344C60094C40F857
S2140066202340094B8B60531CEB7138BDF4320020BD
S214006630575D002008002000246D002000FF300079
S21400664001FF1001020101048165000010B47024EE
S214006650427B0D48013A012904FB020006D00229BC
S21400666008D059B95DF8044B2DF046BF5DF8044BD1
S2140066702DF045BF5DF8044B2DF044BF03485DF890
S214006680044B13F055BA00BFD018002005F90300DC
S214006690B0F85C302DE9F0418B4204460E4638D007
S2140066A0437B077C8BB31C4A12789A422DD3702505
S2140066B01A4A013B05FB032390F80F801B7B4246DA
S2140066C02DF031FFB845054601D1FF281FD13A46C7
S2140066D03146204694F890302DF025FF2F4605468B
S2140066E0552212216078A4F85C602DF047FEFF2F3B
S2140066F003D039462046FFF7A9FFFF2D09D02946CB
S2140067002046BDE8F0412DF04EBFFF25DFE70746E7
S214006710E6E7BDE8F08100BF405D0020D01800200D
S21400672041688268C978D27849B112B10321FFF76F
S214006730AFBF837B002B0CBF01210221F7E72AB1F4
S214006740837B002B0CBF02210121F0E7014813F0E8
S214006750EFB900BF16F90300037BD3B14368DA78BC
S21400676012B18268D278A2B91B7933B1837B002B31
S2140067700CBF04210521FFF78BBF83681B792BB163
S214006780837B002B0CBF05210421F4E7014813F09E
S214006790CFB9704748F90300084A437B05211370B8
S2140067A0837B5370C37B9370037CD370037B13711E
S2140067B000780E30C0B2FFF707BB00BF595D00205F
S2140067C038B5044600780C4D0E302A460521C0B276
S2140067D0FFF7EAFA20B1BDE83840084813F0A8B938
S2140067E02B7863736B78A373AB78E373EB782374BF
S2140067F02B79237338BD00BF595D002084F9030050
S214006800024B53F820002DF018BF00BF1C330020A9
S214006810F8B504460B78424A43700D4642F823000A
S214006820404E2DF028FFFFF7CBFF6268A3683E4876
S2140068303E49D6641165D4655065C3E91410DE641C
S214006840DC654FF0987302266361012304F10C01A6
S214006850E16137491032216204F10D01A162354928
S2140068602376E16204F10E016163334984F8243033
S214006870A16304F10F012164304984F8303061646B
S21400688004F11001E1642E4984F83C3084F8483065
S214006890216584F85460A265E879A96800EB400297
S2140068A001EB820704F1140CC7F804C04FF4817C96
S2140068B0244F41F82270C218D2B202EB420241F8CD
S2140068C022C001EB820700227A601F4A84F87030EB
S2140068D022661E4A84F88830A2661D4A1D4BE26670
S2140068E01D4AC4F88C3062671C4A8319A26704F1FB
S2140068F05C02C4F88020DBB2194A03EB4303C4F8F9
S214006900842084F8646084F87C6001EB8302603441
S2140069105460144A033041F82320E871F8BD00BFE4
S2140069201C33002021670000FD4503005967000066
S21400693001002001020010010300300104003001B4
S2140069400500210101FC01064A002100288F0400F1
S214006950510010002A8F04002B8F040055002100E0
S2140069606F0018001200010470B50D460646144666
S21400697013460A460146164813F0DAF825B92046AB
S214006980BDE87040FFF73CBC072D05D121463046D8
S214006990BDE8704000F000BB4FF601439D4205D1B4
S2140069A021463046BDE87040FFF72ABF062D05D1C8
S2140069B021463046BDE8704000F0A2B8B5F5817FAC
S2140069C005D121463046BDE87040FFF7B9BD70BD21
S2140069D0B3F903000148FFF75DBB00BF696900001B
S2140069E04FF4C01330B5036001230371074B8C6866
S2140069F08360CA7902EB420304EB830568600448AF
S214006A0044F82300531CCB7130BD00BF2C8F04000C
S214006A100400010138B50024044D55F8040B08B1F4
S214006A202DF039FE01340A2CF7D138BD443300204E
S214006A30042908B50AD172B16BB113781BB92DF0D1
S214006A4055FE002008BD2DF047FEFAE7034813F078
S214006A506FF80120F6E70320F4E700BFE6F903002D
S214006A6010B4054C114654F820001A46BDF8043000
S214006A705DF8044BFFF7DCBF4433002002290246D2
S214006A8008B50ED004D839B910462DF02FFE06E012
S214006A904029F9D0412907D110462DF01DFE0020CF
S214006AA008BD2DF02DFEFAE7024813F041F801204C
S214006AB0F6E700BF06FA030010B4054C114654F87A
S214006AC020001A46BDF804305DF8044BFFF7D6BF29
S214006AD044330020426B094B52791A7082785A7000
S214006AE0C2789A70826B12B190F83C20DA70007807
S214006AF004210930014AC0B2FFF766B95E5D002086
S214006B00024B53F820002DF017BE00BF4433002080
S214006B1038B504460078084D09302A460421C0B22C
S214006B20FFF742F930B96B78A370AB78E370EB7877
S214006B3084F83C3038BD00BF5E5D002038B50446A2
S214006B400078114D09302A460421C0B2FFF72CF90F
S214006B50C8B9A3782A78022B0CD004D863B920468B
S214006B602DF0C4FD01E0FF2B0AD02046BDE83840DA
S214006B702DF091BD002AF2D120462DF0ADFDF4E7B0
S214006B80002AF9D1EBE738BD5E5D0020F8B5044673
S214006B900B78284A0D4642F823004370FFF7B8FFEB
S214006BA0636B254A5C631A632046FFF7C7FF2046DF
S214006BB02DF071FD4FF4801363600123626BA66BAA
S214006BC00532E2601D4A23722261A21C2375A2616F
S214006BD066B11B4A84F82030E261E21C6262194A00
S214006BE084F82C3004F13C03A26223630627EA797A
S214006BF0A96802EB4203002E21F8237001EB830004
S214006C000CBF02230423C370012383700E4B04348D
S214006C108360531C4460DBB20C4C03EB430341F827
S214006C20234001EB830000234360094B023283605C
S214006C30EA71F8BD443300201547030003403001D5
S214006C4001FF300102FF1001B96A000008000100D0
S214006C50616A000028B1034B1B78834234BF0020D2
S214006C6001207047425D002070B500250A4C0B4E8F
S214006C703378AB4200DC70BDD4F8A42042B123794F
S214006C801BB16079FFF7E6FF10B910462DF030FA19
S214006C900135A834ECE700BFDC1C0020435D002073
S214006CA008B5427901461046FFF7D4FFA8B1CB7865
S214006CB00A48013A042B00EB82100ED8012B08D8A4
S214006CC01BB9BDE808402DF007BDBDE808402DF013
S214006CD00DBDBDE808402DF013BD08BDDC1B00202F
S214006CE008B5427901461046FFF7B4FFA8B1CB7845
S214006CF00A48013A042B00EB82100ED8012B08D864
S214006D001BB9BDE808402DF0F1BCBDE808402DF0E9
S214006D10E3BCBDE808402DF0F3BC08BDDC1B00203A
S214006D2010B586B00446FFF7D7F9012830D1E278CF
S214006D30042A2DD8DFE802F0133234030300617909
S214006D400846FFF787FF58B31648032A00EB811062
S214006D5050F80C3C58791DD1003818BF01206378D4
S214006D604FF480728DF804304FF48273ADF806301D
S214006D700623ADF8083001238DF80B3000238DF87C
S214006D800A0001A8CDE903238DF81430FFF7DCF9DB
S214006D9006B010BDB0FA80F04009E0E70020DEE75C
S214006DA00220DCE7DC1B002010B586B00446FFF7A7
S214006DB093F9012830D1E278042A2DD8DFE802F0D2
S214006DC013133203030061790846FFF743FF48B305
S214006DD01548032A00EB811050F80C3C5B791DD156
S214006DE01A1E18BF012263788DF80A208DF8043029
S214006DF04FF48273ADF806300623ADF80830012351
S214006E004FF480728DF80B30002301A8CDE90323E0
S214006E108DF81430FFF798F906B010BDB3FA83F278
S214006E205209E0E70222DEE7DC1B002010B586B040
S214006E300446FFF751F9012812D16378094A8DF804
S214006E4004304FF48273ADF806304FF48073CDE90A
S214006E500223002301A804938DF81430FFF774F979
S214006E6006B010BD0800070110B586B00446FFF74F
S214006E7033F9012820D16278104B8DF804204FF4A6
S214006E80827294F8A01094F8A10059701870ADF8AA
S214006E90062004934FF480720223094901A88DF856
S214006EA01430CDE90212FFF74FF994F8A130013BF8
S214006EB018BF012384F8A13006B010BD625D002023
S214006EC00800050110B58378044603B30379022B46
S214006ED00AD142791046FFF7BDFE28B10C48013AA8
S214006EE000EB82102DF00CFCA379022B02D1204679
S214006EF0FFF716FF2046FFF7B7FF02236078A4F8D7
S214006F006C305522BDE8104012212DF037BA10BD66
S214006F10DC1B00204388094A08211380838853809D
S214006F2083681B8A938090F8A03093718379D3711D
S214006F3000780430C0B2FEF747BF00BF56560020A8
S214006F4038B50D4604460178114812F0F1FD4FF6AB
S214006F5002739D420ED10F4B1B782BB963712046EE
S214006F60BDE83840FFF7D6BF62790AB19342F6D241
S214006F700123F3E7B5F57F4FF1D120462DF059FCFC
S214006F80A378022B0CBF01220022A3689A70E6E7C2
S214006F9022FA0300425D0020024B53F82000FFF760
S214006FA0CFBF00BF6C33002038B504460078144DC0
S214006FB004302A460821C0B2FEF7F6FE20B1BDE82E
S214006FC03840104812F0B4BD2B8863806B88E9788F
S214006FD0A380AA88A3681A82AB7984F8A030EB79DC
S214006FE0A371094B1B780BB9637138BD09B199427F
S214006FF0FBD9064812F09CFD23780133F4E700BF66
S214007000565600203CFA0300425D002065FA030055
S214007010F8B504460B78474A0D4642F823004370FD
S214007020FFF7C2FFA268444BD465D364434B0226E5
S2140070305365434BA11C13654FF44013E3600123D3
S2140070406161E1623F49103221632265211D3E4A9B
S214007050A1633E483E49626504F1A002A061E16377
S214007060E265E01C611D3B4A206261643A483B4988
S2140070702266A21D2374237784F8283084F83430DF
S21400708084F84030A16484F84C6084F8583084F862
S21400709064306062A266E879AA6800EB400102EB01
S2140070A0810704F10C0CC7F804C04FF0060C2C4FF7
S2140070B042F82170C118C9B201EB410142F821C063
S2140070C002EB810700217960264F84F8803027671D
S2140070D0254F84F89830A767244F254BE767254F40
S2140070E084F8746084F88C60C4F89C3004F16C06F4
S2140070F0831CC4F88470C4F890601F4F1F4EDBB228
S21400710003EB4303C4F89460C4F8887002EB83066C
S2140071107034746008261A4C42F82340C31CDBB255
S21400712003EB430302EB8304043042F82360616000
S214007130E871F8BD6C33002089470300D34703008D
S214007140C56E000001FF300104FF20011000300171
S21400715002FF200105FF300100FF300103FF21017F
S214007160070001084A0021002E8F0400510010007D
S214007170308F0400318F0400550021006F00180086
S2140071801200010400239B6AB3F5804F03D21968EE
S214007190064A914203D000230370836070470122A1
S2140071A002709A689B694260F7E700BF07B0CD5E41
S2140071B0024B034A1A602EF060BF00BF000000209A
S2140071C002020FF073B53F4B04461A781AB102223A
S2140071D01A7002B070BDCDE900220028F9D0012651
S2140071E01E7037F059FE384D384B186017F082FA8B
S2140071F02B785BB902F0F2F940B935480823354AD6
S2140072003549006801F038FE00B92E70334B5A68D5
S214007210E260334A9A601A6E22605A6E6260D3F851
S2140072207021A2601B6E5C042CD52E4AD368D8074A
S214007230FCD42D4B1A68531C29D04FF4801393406E
S2140072402A4A13660423294C4FF0804223664FF4E3
S21400725080632366102323664FF400536846236634
S21400726001A9226663662DF0FCFA009B2366019B4B
S21400727063662B78002BACD0164B1A6822665B68C8
S2140072806366A6E71A4AD368D907FCD4D1E7194B38
S2140072901B78002BD6D1184B5A68144B12B94FF4F2
S2140072A080121A66154A526812B94FF400121A660E
S2140072B0134B5B68002BC5D14FF480020B4B1A664C
S2140072C0C0E700BF655D0020665D0020A433002097
S2140072D0AC670020A833002000710800008000443E
S2140072E055CEAC00000004407867002000900044B3
S2140072F000000450645D00200080055000C005506A
S2140073000000065038B5224D04462B78012B02D0DB
S21400731001232B7038BD0028FCD02DF0C7FA0130B1
S21400732009D02DF0C3FA40F20113984203D0194A4F
S214007330D368DB07FCD42268174B1A6662685A6665
S214007340A268C3F87021E268D40744BF00229A609E
S214007350124B1A68013213D1114A127882B91149B8
S2140073604968C80748BF1A600F4A5268D10744BF29
S21400737001221A600D4A5268D20744BF02221A60E0
S21400738017F0C0F90A4B186837F081FD0023C0E7F4
S214007390655D0020000004400080004478670020FF
S2140073A0645D00200080055000C0055000000650B7
S2140073B0A433002070B50024A36AB3F5804F23D20F
S2140073C01A68134B9A421FD1124E337813F0FD05FC
S2140073D018D14FF480341048FFF7F4FE032004F071
S2140073E04FFC0E4B0320DC6004F02EFC0C4B1C61A3
S2140073F0AB6ADB69984704460748FFF783FF0CB97A
S21400740001233370204670BD4FF48174FAE700BF45
S21400741007B0CD5E645D00209433002000A00044D9
S2140074200090004413B5204B1B7803B9FEE70023F9
S2140074301E4CCDE900336A4608231D49206801F03A
S2140074401BFDF8B91B4AD2F84031D2F840211F2B59
S2140074504FF0010311D9203A9340019A1A43019242
S21400746008236A461249206801F08EFE124B134A22
S2140074701A602EF002FE02B010BD9340009A1A4326
S2140074800092EDE72D28F1D10A4AD2F84031D2F821
S21400749040211F2B4FF0010385BF203A93409340B5
S2140074A0019398BF0093DBE7655D0020AC67002082
S2140074B00071080000800044000000200B020FF05E
S2140074C038B50025AB6A0446B3F5804F10D21B6B67
S2140074D0B3F5804F0CD20748FFF774FEAB6A204620
S2140074E01B6B5B689847BDE838400248FFF70ABF49
S2140074F038BD00BFB033002013B50024A36A019046
S214007500B3F5804F13D21B6BB3F5804F0FD20948EB
S214007510FFF758FEA36A01211B6B01A89B699847D9
S21400752004460448FFF7EEFE204602B010BD4FF4B6
S2140075308174F9E7B033002070B50026B36A0446BC
S214007540B3F5804F0D4612D21B6BB3F5804F0ED2AB
S2140075500848FFF737FEB36A20461B6B29469B692F
S214007560984704460348FFF7CDFE204670BD4FF40B
S2140075708174FAE7B033002070B50026B36A04467B
S214007580B3F5804F0D4612D21B6BB3F5804F0ED26B
S2140075900848FFF717FEB36A20461B6B2946DB69CF
S2140075A0984704460348FFF7ADFE204670BD4FF4EB
S2140075B08174FAE7B0330020F8B50027BB6A0446AA
S2140075C0B3F5804F0D46164611D21B6B7BB10948AA
S2140075D0FFF7F8FDBB6A20461B6B324629465B6AFE
S2140075E0984704460348FFF78DFE2046F8BD4FF443
S2140075F00174FAE7B033002070B50026B36A04467B
S214007600B3F5804F0D4612D21B6BB3F5804F0ED2EA
S2140076100848FFF7D7FDB36A20461B6B29469B6ACE
S214007620984704460348FFF76DFE204670BD4FF4AA
S2140076300174FAE7B0330020F0B50027BB6A0446B1
S214007640B3F5804F0D461646ADF5337D20D21B6B45
S214007650B3F5804F1CD21048FFF7B4FDBB6A204636
S2140076601B6B40F2C1225B6A01A99847044630B101
S2140076700948FFF747FE20460DF5337DF0BD836AC7
S21400768032461B6B2946DB6A01A898470446EFE79B
S2140076904FF40174EFE700BFB033002010B50024AC
S2140076A0A36AB3F5804F10D21B6BB3F5804F0CD294
S2140076B00748FFF787FDA36A1B6B1B6B98470446BA
S2140076C00348FFF71FFE204610BD0124FBE700BF5E
S2140076D0B0330020F0B58FB0044601A80E4615461C
S2140076E0FFF7EEFE9DF80C30012B12D1B5F5402FBA
S2140076F027D8B4F5402F24D86319B3F5402F20D8E7
S21400770021462A46304613F0B5FC002420460FB02A
S214007710F0BD0027BB6AB3F5804F15D21B6BB3F5DF
S214007720804F11D20A48FFF74DFDBB6A2A461B6BF5
S214007730314620465B6B984704460548FFF7E2FD56
S214007740E4E740F20244E1E740F20114DEE700BF5E
S214007750B0330020F0B58FB0044601A80E4615469B
S214007760FFF7AEFE9DF80C30012B1FD1B5F5402F6C
S21400777006D8B4F5402F03D86319B3F5402F13D9B4
S21400778040F2024420460FB0F0BDE258013225D147
S21400779004339D42F9D82A46314620462DF0B6F8E5
S2140077A00028EDD00024EDE70023F2E70027BB6AAF
S2140077B0B3F5804F15D21B6BB3F5804F11D20A4834
S2140077C0FFF700FDBB6A2A461B6B314620469B6BC3
S2140077D0984704460448FFF795FDD3E740F2034474
S2140077E0D0E740F20114CDE7B033002070B58EB07C
S2140077F0044601A80D46FFF763FE9DF80C30012BEA
S21400780022D144EA0503C3F30C03002B33D1B5F5AC
S214007810402F04D940F2024420460EB070BDB4F5A5
S214007820402FF7D82544B5F5402FF3D8204604F569
S21400783000542DF064F8AC4202D00028F6D1E9E7F7
S2140078400028E7D00024E7E70026B36AB3F5804FA8
S21400785014D21B6BB3F5804F10D20A48FFF7B2FC68
S214007860B36A29461B6B2046DB6B984704460548DF
S214007870FFF748FDD0E740F20444CDE740F201149C
S214007880CAE700BFB0330020BFF34F8F0549064B51
S214007890CA6802F4E0621343CB60BFF34F8F00BFA9
S2140078A0FDE700BF00ED00E00400FA0570B5D0B1BA
S2140078B0C9B10E4E431E013913F8014F2046325D02
S2140078C002F00302012A11F8012F08BF04F120007C
S2140078D0B55C05F00305012D08BF2032801A01D1E2
S2140078E0002CE9D170BD0120FCE700BF91B6040072
S2140078F00348044A0449121A92102DF053B800BFE8
S21400790034410000D0420000AC64002008B5154B9E
S21400791083F30A8800F030F8FFF7EAFF124B1349AA
S2140079208B4212D30020124B12498B4218D3FDF71C
S214007930D9F9186850F82240586840F822400132B9
S21400794098688242F5D30C33EAE70022F8E71C6811
S21400795044F8220001325C68A242F8D30833E4E718
S2140079600022F8E70800002050DB04005CDB04007F
S2140079705CDB04005CDB0400124B134A70B59A60B3
S214007980D3F88820114D42F47002C3F888206FF0B7
S214007990010205F50054226641F2FF726266022279
S2140079A0C3F8D020BFF34F8FBFF36F8F4FF440362E
S2140079B0032004F065F90320E66004F045F92E6123
S2140079C070BD00BF00ED00E00040000000800044F5
S2140079D0014B1860704700BF80670020054B186099
S2140079E0054B1B6F03F00703032B01D135F006BBD5
S2140079F0704700BF88670020008000502DE9F041E6
S214007A0004464FF001080C250D4E0CB9BDE8F08178
S214007A1094FAA4F0B0FA80F00F2808FA00F2C8BF73
S214007A20103824EA0204CABF05FB006205FB0062A8
S214007A30B4325768002FE8D09168C0B2B847E4E780
S214007A40C033002008B50C4837F0C4FA192004F0FB
S214007A5009F928B1192004F013F9192004F0F4F8F4
S214007A601A2004F0FFF828B11A2004F009F91A20A9
S214007A7004F0EAF8002008BD949104002DE9F041D6
S214007A800E461746054618B30F2923D80378DBB1F0
S214007A90013BDBB2022B19D8104AD35C6A78D3407C
S214007AA0DB0717D50E4BD3F81043ACB937F0F4F913
S214007AB080463A462846314602F042FE404637F0B7
S214007AC0E6F92046BDE8F0817F23E7E70023E5E7F7
S214007AD02224F6E72124F4E70224F2E7848F040048
S214007AE000C0035010B5044610B30378E3B1013B61
S214007AF0DBB2022B1AD8104AD35C6278D340DB077D
S214007B0018D537F0C9F90122617823788A403021E8
S214007B104B4341F2100103F1A04303F570335A5072
S214007B2037F0B5F9002010BD7F23E6E70023E4E731
S214007B302220F8E72120F6E7848F040010B50446DB
S214007B4010B30378E3B1013BDBB2022B1AD8104A1C
S214007B50D35C6278D340DB0718D537F09DF9012255
S214007B60617823788A4030214B4342F2100103F1BA
S214007B70A04303F570335A5037F089F9002010BD42
S214007B807F23E6E70023E4E72220F8E72120F6E754
S214007B90848F040038B50D46044618B311B3037835
S214007BA0E3B1013BDBB2022B1AD8104AD35C6278F1
S214007BB0D340DB0718D537F06FF9302223785343CC
S214007BC003F1A04303F570335B696278D34003F09A
S214007BD001032B7037F05BF9002038BD7F23E6E702
S214007BE00023E4E72220F8E72120F6E7848F04004C
S214007BF02DE9F0410D4616469846044600284FD01B
S214007C0000294DD00178002940D04B1EDBB2022B54
S214007C103ED8254AD25C6378DA40D20701D4FF29E1
S214007C2040D1022E01D9042E3CD137F035F9237805
S214007C300746FF2B05D032462046296802F0C6FDCF
S214007C4028602B68013309D12378FF2B06D1174B08
S214007C506078D3F824142DF080FC286029684B1C2B
S214007C6018D00C23124A03FB0122069BC2F804809C
S214007C7093602378FF2B04D001230E4A8B40C2F872
S214007C802434384637F003F9002007E07F22C2E7A5
S214007C900022C0E7384637F0FAF82D20BDE8F0811C
S214007CA02220FBE72120F9E7848F040000C0035060
S214007CB0C033002000D0035008B502F037FD044B57
S214007CC000F05530C3F82004BDE80840FFF796BE24
S214007CD000E0035008B502F029FD044B00F0AA307E
S214007CE0C3F82004BDE80840FFF788BE00E0035054
S214007CF02DE9F04F144605460E469B46C36B87B0EB
S214007D0001225B6902A960689847EB6B01225B69F8
S214007D1003A93046984702A82DF043FA074648B113
S214007D200023A37563754FF0FF33A360002007B0F0
S214007D30BDE8F08F03A82DF041FA0123A375237E3A
S214007D4004EBC303DE611F846368B3420ED1206078
S214007D5003A82DF055FA4FF0FF332075A360237D5E
S214007D60043B022B26D80023A375DFE723681A1AE4
S214007D7053425341A37503A82DF042FA237D834254
S214007D8018BFA77503A82DF01DFA074602A82DF008
S214007D9019FA874218BF002303A818BFA3752DF051
S214007DA019FA074602A82DF015FA87421CBF0023D1
S214007DB0A375D4E703A82DF005FA80B1EB6B022279
S214007DC030465B6904A9984704A82DF00AFA0346D2
S214007DD0207D032839D8DFE800F03838040903A8E6
S214007DE0F3E7CC22237E04EBC3031A8401F06EFC77
S214007DF0109B187003A8277E2DF0D8F904EBC70750
S214007E0087F82200237E03A804EBC303B3F8209070
S214007E1093F822702DF0D6F9804603A82DF0DAF9F3
S214007E208246B8F1000F15D0EB6B022230465B6934
S214007E3004A9984704A82DF099F96075637D6BB97D
S214007E400023A3754FF0000838E0227E04EBC20240
S214007E501384CBE703A82DF074F9EEE794F81680A8
S214007E60B8F1000FEED0B9F1000F09D1DFB1012350
S214007E70E375637E002B4FD1012F42D1677614E065
S214007E806B6C06EB0A015A4286EA010010421CBFE0
S214007E900022A2755A1E0A409B1A9945D0D8A37D87
S214007EA0002BE3D1CEE7E37D43B94FF000084B4605
S214007EB05246314628462CF0BFFEA060A27D12B185
S214007EC023694B4423611A49237E097899422AD9AB
S214007ED001332376BBF1000F27D032B3E37D23B303
S214007EE0B8F1000F21D1032F1FD0A1684B1C1CD066
S214007EF0109B2246009328460123FFF7F9FEA07543
S214007F0013E095F8343063B9EB6A0133CFD1032F11
S214007F10CDD10123A376C8E7012FCFD0032FC4D13C
S214007F20F7E79846C3E70023A375A07DFFE600BFEA
S214007F30A88F04002DE9F04F0E46984600238BB01C
S214007F4004464FF0FF31104617468DF8133001F007
S214007F50A7FBB6F5801F20D2314605AA04F108001B
S214007F602DF071F8451C014603D1237CBBB92D20AA
S214007F7010E0384601F094FB0122394620460DF108
S214007F8013032CF0ABFE0028EFD09DF8133088F8D2
S214007F90003000200BB0BDE8F08FB01CE5D1E56ADC
S214007FA0691C36D12046616A2CF08CFD0546B31C50
S214007FB018BF0123DFF8CC900193636A626C0293CA
S214007FC0236805A902FB053AE36B05225B69504668
S214007FD0984705A82DF080F92DF0A3F950462DF00E
S214007FE0ABF94FF0000B824601464B1C05D0636C84
S214007FF081EA0A025B42134211D0294620462CF041
S21400800061FD029BAB422CD0BBF1000F2CD1054684
S214008010D3E72368ED1A636CB5FBF3F5C7E748466C
S21400802001F03EFB0DF1130349462046019A2CF061
S21400803055FE034690B1B21C03D0D9F80020B242D8
S2140080400CD19DF8132003930D4B88F80020494669
S2140080501A68384613F00EF8039B9B46D9F80810AA
S214008060C3E7BBF1000F82D0B6F5801F91D2314630
S21400807098F800307A6804F1080001F03FFA88E7C3
S214008080A48F04009C3B00202DE9F34104461746CC
S21400809098460E46184D816AE36A8B4201D04B1C07
S2140080A002D102B0BDE8F081284601F0F9FA0122BB
S2140080B0294620460DF107032CF010FE38B1434642
S2140080C0294620469DF80720B8470028E9D0A96829
S2140080D04A1C04D1696820462CF081FD0146012E19
S2140080E0DAD16B6881EA0302636C5B421A4218BFFE
S2140080F04FF0FF31D0E700BF703B00202DE9F04F76
S2140081004FF0FF334FF6FF720025044600F10806D5
S214008110C0E909238BB0C362056205633046884612
S2140081202CF062FF20462CF09DFC60BB20464146AA
S2140081302CF018FD20462CF095FC60BB5E200BB0A2
S214008140BDE8F08F2368E26B606C576900FB053072
S214008150052205A9B84705A82DF0BEF80128074650
S2140081600CD1294620462CF0CEFC012F024600D129
S2140081700132294620462CF094FC03E02DF0D6F878
S2140081800028EED10135E3699D42DBD320462CF072
S21400819069FC0028CAD000254FF0FF394FF6FF7360
S2140081A0CA46A846C4E90853E36998450AD3A5EB2E
S2140081B00905012D2CD84FF6FF72636A93423CD115
S2140081C06720BCE72368E26B606C576900FB0830E9
S2140081D0052205A9B84705A82DF07EF8834605A810
S2140081E02DF051F8074658462DF09BF868B15745D4
S2140081F038BFC4F82480B94528BFB946BD4238BF49
S2140082003D46BA46236A0133236208F10108CBE7EC
S2140082104FF6FF7300256362E3699D42CBD2676C1D
S2140082202068E36B052207FB05005B6905A99847F4
S21400823005A82DF028F80135EEE7E26B676C20689C
S214008240694607FB030055690522A84768462DF0D6
S2140082501AF8626A2368606C4B4D00FB02302DF002
S2140082606BF84FF0FF33A062E3622A466FF001011D
S214008270204605ABFFF75EFE002846D1AD682946CE
S2140082802046E5622CF0CAFB206320B92046E16A4E
S2140082902CF0A5FCE062294620462CF0A0FC054602
S2140082A0A36A9D4233D120462CF08BFB00278046E4
S2140082B0B946E36999453CD3B84559D92046616A21
S2140082C02CF000FC0026054604F1400AB74212D8FE
S2140082D0626C2368694602FB0539E36B05225B691D
S2140082E04846984768462CF0CEFF53460246494615
S2140082F0E06B2DF023F8294620462CF0E3FB0136F0
S214008300B0450546E2D1642019E7A56AB7E72946D5
S21400831020462CF083FB236B294603440746236341
S21400832020462CF05CFC0546002FB9D1C4E90B07AB
S214008330B6E7636C2568052203FB0955E36B05A9C0
S2140083405B692846984705A82CF0C6FF2CF0E9FF85
S21400835058B128462CF0F0FF014620462CF05EFB74
S214008360636C143B984208BF013709F10109A0E786
S21400837030462CF039FE002320461946034AFFF704
S21400838083FE0020DBE600BFC83B0020CB4C03008A
S2140083902DE9F041036B9046826B07689A4288BFCE
S2140083A08363426C436A90B002FB0377C36B0E464E
S2140083B0052201A95B6904463846984701A82CF0B7
S2140083C08BFF01280146307057D0656CE26B23683E
S2140083D0606AD2F814C005FB0030052206A9E04703
S2140083E006A82CF079FF01284FF0000523D0D4E929
S2140083F00A3201219342CDE90B458DF834800E9563
S2140084008DF83C102AD1194620462CF0E8FB236B49
S214008410626C14339B1AE06223630C9B53B99DF87D
S2140084203C303BB1626A616C2368E06B01FB023151
S2140084302CF00AFF0C9DE36B05225B6901A9384608
S214008440984701A82CF048FF30702846236BA26B93
S2140084509A4288BFA36310B0BDE8F081237C33B98D
S2140084601C490BAA04F1080001F096F8D5E720464F
S214008470194A0BABFFF708FECFE7237C23BB224647
S214008480164904F1080001F087F8616A20462CF0CE
S2140084903AFB616A421C20462CF003FB054620B9D5
S2140084A0236B626C1344143B23632046A16A2CF0B2
S2140084B096FB2368A062C01A636CB0FBF3F06062A0
S2140084C020462CF0CFFBB6E700232046044AFFF7F1
S2140084D0DBFDDAE7358C0000B18B0000654D03004C
S2140084E0014D030073B50D46D11E4A421C461B7E45
S2140084F04A419A4226D129682368994222D3636862
S21400850099421FD8114E0DF107033246FFF712FDB0
S214008510C0B972686B689A4214D19DF80730DA1EAB
S21400852053425341227E93420CD163690133636107
S214008530D4E90323934205D22968A26842F823109F
S21400854001332361012002B070BD00BFC83B00208C
S2140085502DE9F04F9B4689B09DF848309046514A29
S2140085600193136907465B450D46C0F09580D946D2
S21400857053680093B9F1000F7BD0FB6B01225B6957
S21400858005A90098984705A82CF018FE454B1B68CF
S214008590984240F0848005A82CF01CFE042806466D
S2140085A015D105A82CF01DFE009B04461E44019B19
S2140085B0002B3ED1804512D91C46A8EB0008384651
S2140085C000992CF00CFBA9EB04090090D2E7FB6B9A
S2140085D002225B69009806A9984706A8E2E7A0EB86
S2140085E008045C4528BF5C46032C4644ABEB040BF2
S2140085F01DD9FB6B294630465B69A208984724F0D4
S214008600030304F0030A1E441D44DDF80480BAF197
S214008610000FD4D0FB6B012206A930465B69984751
S2140086205246284606A912F025FD5544C7E7A2463D
S214008630EBE7824600F0030302932B1803930644ED
S214008640039BA6EB0A00A3EB0A05029B9A4514D1EE
S214008650BAF1000FB3D0FB6B012206A95B699847FD
S2140086605246284606A912F0C1FE0028DDD04FF07B
S2140086703609484609B0BDE8F08FFB6B012206A913
S2140086805B6998470422284606A912F0AFFE002828
S214008690EDD1AAF1040AD3E74FF06309E9E74FF0FA
S2140086A06F09E6E7F43B00202DE9F0410F46164639
S2140086B09846044688B060B390F83450FDB1012166
S2140086C02CF0C5F900210E9BCDE90511CDE9023746
S2140086D09DF83C30CDF804808DF81C30237C049641
S2140086E08BB90D4901AA04F1080000F055FFDDE939
S2140086F00553E06B002E08BF1D462CF041FB2846B4
S21400870008B0BDE8F0812046044A01ABFFF7BCFC88
S214008710EDE70546F3E700BF2F4D0300E5840000B4
S2140087207FB590F84260044601920DF10B030A46AD
S214008730304611492CF02CFB012E0546E36B17D171
S21400874032465B6903A998479DF80B10039B019A74
S21400875059B19BB243EA0243012228460393E36BD6
S21400876003A99B69984704B070BD62F30F03F3E753
S21400877001229B6901A9F5E7F43B00202DE9F04FA3
S21400878099B00E460D920A69416C0B931439D31DAD
S214008790B3FBF1F3013302EBC302036B04469342CF
S2140087A0C0F001820023DFF804940893E36A484689
S2140087B01946059300F074FFD6E9033707930B9B21
S2140087C0022B4DD1CC2F40F0D7810D9B3BB13146CB
S2140087D020462CF033FB656C1490012044E0012009
S2140087E0079B656C1B68149300F0010000280CBF03
S2140087F004230823782F0E9349D8059A6B1E13403E
S214008800ED1A3B1D9D423CD2002F3DD0082D3ED890
S2140088100023042506934FF0040A336806990B9844
S214008820C9F80030C9F810702CF0EEFC4FEA9A0335
S2140088300F93059B89F814000393002309930C9368
S21400884004930A93616C039B4A1E1A408B1A27B343
S2140088505544AB4223D8236B5B1A134423632FE1A2
S214008860782F656CB9D8F07D0D9B002BBCD0E36BE0
S21400887001225B69706816A9984716A82CF0A2FC1E
S214008880B4E700250695C6E704250697C3E7012347
S21400889000254FF0080A0693BFE75345DBD3A3EB4A
S2140088A00A029742039BB84628BF90469742534415
S2140088B028D90122D9F8101089F817208F4226D11E
S2140088C00399C9F80410049299F817200AB399F886
S2140088D018100398CA1C09EBC202506004980131B4
S2140088E0A2F80880907289F81810B8F1000F07D027
S2140088F00B9A022A40F08180099A72B101220992ED
S2140089009B46ABE0049A002A18BF0322DBE702224C
S214008910D9E7039AC9F80420E7E70C9A4244032AE9
S214008920EED9E26B1846956914A901220993A84767
S214008930099B05460028E1D03D2D40F01E8104F13C
S214008940080303932368059A606CA2EB030ABAFB3C
S214008950F0FA00FB0A302CF0EFFCE16A8046204675
S2140089602CF03DF9A26A824200F00F81626CD9F8C1
S2140089700830511E0B40216B2768891A0B4423636D
S214008980089BE062DF1BB7FBF2F7BA4540F0FA80BF
S214008990059BB3EB080A12D0E36B4FEA9A024146F6
S2140089A09B6998478346E36A059A5344E362236BC0
S2140089B003989B1A434423632CF016FBDA4623687D
S2140089C0616CE06B01FB07312CF02BFC20462CF091
S2140089D049F820462CF046F92063BAF1000F00F063
S2140089E0D4803269616CD31D1439B3FBF1F30133C3
S2140089F002EBC3029042A5D2BFE00D9A002A77D1BF
S214008A00B8F1030F4FEA98026ED9E16B18468D69EC
S214008A1007991093A847109B0546C0B918F00305A0
S214008A2015D0079A28F0030B02EB0B019B444FF07E
S214008A30FF3215A815922A46109312F01BFBE26B24
S214008A405846956915A90122A8470546109B9B46DE
S214008A50079A42440792002D40F08B80049B16A88C
S214008A600193069B009399F814204346316800F062
S214008A70CDFDE36B0F9A9B69039816A99847039A56
S214008A80051E089B18BF13460893434652462046C9
S214008A9003992CF0D1F8236B08F10302A3EB0A0329
S214008AA022F003029B1AC9F808002363002D7FF406
S214008AB043AF0C9BA7EB080743440C93CDF80CB0D0
S214008AC0204603992CF08BF800250390002F7FF4A6
S214008AD0B9AE364A3168936804F10800E36252681A
S214008AE00B9B00F00BFD49E09B46454607999EE729
S214008AF09B4606F120021092F27D7068A2B1002219
S214008B0096F818C00A99D5B2AC4511D9109D02F155
S214008B10010E35F832508D4228D90E9806EBC20267
S214008B200144D069084403E00E9A0A990A441044A6
S214008B30E26B15A9556901221193A847159A0A9B5D
S214008B401392E26B043395695846012213A90A93DF
S214008B50A847119B054603EB0802A2EB0B02042A6A
S214008B607FF679AF28B90BF1040BC5E77246491BAF
S214008B70C9E7CDF820B088E770252F46384619B0EB
S214008B80BDE8F08F4FF0000A19E73269616CD31D1B
S214008B901439B3FBF1F3013302EBC302236B9342A8
S214008BA0BFF404AEE9E71C27E8E700BF9C3B0020C3
S214008BB0032A2DE9F34106460D4617461C4606D104
S214008BC0237A012B23D0012002B0BDE8F081DFF824
S214008BD06080096842460DF10703FFF7ABF9606055
S214008BE00028EDD19DF80720237A032AE8D0D8F88C
S214008BF004106A689142E3D1012B2969D4F80CC0AD
S214008C0007D172690CEB0103934202D92074207CD1
S214008C10DAE708316144E1603B46012229463046E6
S214008C20FFF7ACFD60600028CAD00020CCE700BF8C
S214008C30C83B00202DE9F341089C032A1746266806
S214008C4006D1237A012B24D0012002B0BDE8F081A2
S214008C50DFF89080304642460DF10703FFF76AF9C9
S214008C6060600028EDD12568D8F80400A96AD5F818
S214008C7044C04840CCF100031840227AE1D1012AD2
S214008C8009D1E268D8F8103013447269934202D9C9
S214008C902074207CD9E72868EB6A1B1A081AB3FBF5
S214008CA0FCF3B0FBFCF083420BD1706CF36A421EFF
S214008CB01340326B121A1344284633632BF08FFF8F
S214008CC0E862D8F81020E36808321344E360012213
S214008CD03B4604492068FFF751FD60600028B0D08D
S214008CE00020B2E7C83B00202DE9F0410025604B8C
S214008CF00E46D3F8008004461D6018B92125284684
S214008D00BDE8F08190F8347007B30A6803689A42A9
S214008D1040F0A3804A6843689A4240F09E808A6882
S214008D2083689A4240F09980CA68C3689A4240F0C5
S214008D3094800A6943699A4240F08F808A69C36BBF
S214008D409A4240F08A804B698361D8E768223946A8
S214008D50856B11F0FFFFD6E90212336804F10800B4
S214008D6023607368A5636360336963617369A36195
S214008D702CF04CF9B36904F14000E3639B68984714
S214008D8020B9676C17B16368B3FBF7F794F8433004
S214008D90E761002BB2D00023656C2366002D64D0FB
S214008DA0002F62D02368B3FBF5F205FB1233002BCD
S214008DB055D16668B6FBF5F305FB1363002B4ED161
S214008DC020462BF01BFEA369043303449E4248D37F
S214008DD040F634726369CC3B934244D8B5F5805F65
S214008DE043D3032120462BF032FED4E90001E36B87
S214008DF01B6898470546E36B0220DB689847CDB9A9
S214008E0041462046FFF77AF96428054604D14146D4
S214008E102046FFF773F90546666C5DB9236A20465F
S214008E20143E5E432BF0EAFDA369043303449E42DE
S214008E3038BF5A25002D0CBF0123002384F8343098
S214008E4007D1D4E900010B4A1368013313602CF0F4
S214008E5077F9E06B2BF094FF51E75D254FE7592536
S214008E604DE75A254BE75F2549E75B2547E700BFF7
S214008E702C350020283500202DE9FF410C461646EB
S214008E801F46054680B390F834307BB3B1F5801F9B
S214008E902ED2DFF8608001212BF0D9FD2146424614
S214008EA028460DF10F03FFF745F8044670B99DF804
S214008EB00F30012B11D1D8F81030BB4212D1024628
S214008EC0009031462846FFF743FB0446E86B2BF03C
S214008ED057FF204604B0BDE8F081022B14BF2D24B6
S214008EE06024F3E76324F1E72124F2E71124F0E796
S214008EF02924EEE7F43B00202DE9F04385B00C462C
S214008F0017461E460546DDF8308098B390F8343094
S214008F1093B3B1F5801F31D2DFF8649001212BF0B6
S214008F2096FD21464A4628460DF10F03FFF702F844
S214008F30044688B99DF80F30012B14D1D9F81020BB
S214008F4006EB08039A4213D300904346324639464E
S214008F502846FFF7FDFA0446E86B2BF011FF204683
S214008F6005B0BDE8F083022B14BF2D246024F3E780
S214008F706324F1E72124F2E71124F0E72924EEE741
S214008F80F43B002073B50C461646054630B390F801
S214008F9034302BB3B1F5801F24D201212BF057FDBE
S214008FA021462846104A0DF10703FEF7C3FF044684
S214008FB080B99DF80730032B0CD0022B0CD1284625
S214008FC009492BF03BFF3060E86B2BF0D9FE2046BA
S214008FD002B070BD2D24F7E76124F5E72124F6E7FB
S214008FE01124F4E72924F2E7F43B00202DE9F341AD
S214008FF01E4600230C4617460546336050B390F8CD
S21400900034304BB3B1F5801F28D2DFF854800121ED
S2140090102BF01DFD2146424628460DF10703FEF7BC
S21400902089FF0446A0B99DF80730032B10D0022B09
S21400903003BF01233B600423D8F8103018BF386004
S2140090403360E86B2BF09CFE204602B0BDE8F08152
S2140090502D24F6E72124F7E71124F5E72924F3E782
S214009060F43B002073B50446056B2BF0C7FC636E1B
S21400907003449D422CBF00230123854294BF002554
S2140090802D1A207C84F85030656584F85800A8B105
S21400909000230C4E1A461946204600962BF092FFE7
S2140090A0002305461A461946204600962BF093FFE5
S2140090B0E3682844984294BF0020C01AE06502B0D6
S2140090C070BD00BFFFFF0F002DE9F3471E46436942
S2140090D00446B342884617469DF828904ED300258E
S2140090E08DF8075020462BF089FCD4F830A0824536
S2140090F00AD2236AB5EB430F06D2002220460DF1B2
S2140091000701FFF745F9B8B39DF80730012B05D1E5
S214009110002220460DF10701FFF73AF9B9F1030FD7
S21400912006D0314620462BF059FC256B854227D3C6
S214009130144D4FF0FF31284600F0B2FA4B46294650
S21400914000222046C5E90376C5F80080FFF716FB27
S214009150236E054663B12046FFF784FF94F850302F
S21400916013B994F858301BB1236E04F15000984799
S214009170284602B0BDE8F0870135B3E76225F7E779
S2140091801C25F5E7C83B00202DE9FF410F46904619
S2140091901E46054698B390F8343093B3B1F5801F59
S2140091A031D21A4C02212BF052FC22463946284670
S2140091B00DF10F03FEF7BEFE024678B101234246CC
S2140091C00093394633462846FFF77EFF0446E86B91
S2140091D02BF0D6FD204604B0BDE8F0819DF80F3098
S2140091E0012BEBD12169B142E8D1009341463346C9
S2140091F02846FFF7ADF904460028DFD1E7E721242B
S214009200E8E71124E6E72924E4E700BFF43B002062
S2140092102DE9F04790F8423086B0012B05460391C1
S214009220A1EB020740F0AA80FF2F03D81E464FF09E
S214009230640807E00226012B14BF4FF032084FF0F7
S2140092406408013600244FF6FF79DFF844A195F84C
S2140092504230012B14BF322364239C4202D35FFAB0
S21400926088F40DE005AB2246514628462BF0C4FD97
S21400927095F84230012B059B34D14B452DD1E4B2F5
S21400928095F84230012B14BF32226422121BB242E0
S21400929017D3012E39D10022012B05978DF8132004
S2140092A027D1082205A90DF113002CF061F89DF8CE
S2140092B01330059A42EA032221462846FFF730FA81
S2140092C040B10223324900932846CC23096803AAFA
S2140092D0FFF7FAFE06B0BDE8F087DBB203B902344A
S2140092E00134B4E7591CCAD09BB2002BF8D1013424
S2140092F0F6E7102205A90DF113002CF039F89DF8B9
S2140093001330059A42EA0342D6E7039A012B0592E8
S21400931023D10823202205A90DF113008DF8133060
S2140093202CF026F89DF81320120221462846FFF757
S214009330F7F995F84230611C012BC9B21AD1002802
S214009340BFD12846BDF81420FFF7EAF90028B8D1A7
S2140093500234BDF81620E1B2AFE71023202205A99B
S2140093600DF113008DF813302CF002F89DF8132041
S2140093701204DAE70028A4D1059A9EE7B7F5803FE5
S2140093804FF00106BFF457AF4FF032085AE700BF60
S214009390F43B002070B586B00E4605460392A0B397
S2140093A090F834309BB3B1F5801F32D202212BF0F7
S2140093B04EFB31462846184A0DF11703FEF7BAFD54
S2140093C0044618B99DF81730032B0ED102233146F8
S2140093D000932846CC2303AAFFF776FE0446E86BE4
S2140093E02BF0CEFC204606B070BD022B0BD10A49EE
S2140093F028462BF023FD039902468142EFD02846EB
S214009400FFF706FFEAE76124E9E72124EAE71124EB
S214009410E8E72924E6E700BFF43B0020F7B50C4652
S2140094201646054668B390F8343063B3B1F5801F2E
S2140094302BD202212BF00BFB21462846144A0DF1B5
S2140094400703FEF777FDC0B99DF80730032B14D04D
S214009450022B14D10E4928462BF0F0FC471C02467E
S21400946039462846FFF7D4FE044606B13760E86B57
S2140094702BF086FC204603B0F0BD2D24F7E76124D0
S214009480F5E72124F6E71124F4E72924F2E700BFE4
S214009490F43B002030B50C46054685B028B390F85E
S2140094A0343023B3B1F5801F23D202212BF0CFFA3C
S2140094B00DF10F03214628460F4AFEF73BFD0346F3
S2140094C088B99DF80F20032A0DD00322214600926A
S2140094D002462846FFF7F8FD0446E86B2BF050FCE2
S2140094E0204605B030BD2D24F7E72124F8E71124E7
S2140094F0F6E72924F4E700BFF43B00202DE9F0430B
S214009500466886B3056898464FF0000CA946AE46F6
S21400951055F83C400CF1010CC4F31307013401D09C
S214009520B94217D0B4450EF1080EF1D12F460024EB
S21400953003E0B44207F1080712D055F8343001347E
S2140095400133F6D1C1F3130141EA0851C7E900120D
S214009550BDE8F08341EA0851CEE90012BDE8F08389
S214009560B8F1030F03D101230372BDE8F083002393
S21400957003E0B34209F10809F5D055F8334001334A
S214009580C4F30754032CF4D1C1F3130343EA08537E
S214009590C9E90032BDE8F0832DE9F041064640688F
S2140095A082B0B8B10F4690460024336853F8345062
S2140095B003EBC403C5F30752C5F31301013506D008
S2140095C05B683046CDF80080B84718B17068013443
S2140095D08442EAD302B0BDE8F08100BF024B1968AE
S2140095E0024B1868FFF780BB8C670020AC67002032
S2140095F008B535F044FC014B186008BD203C00203F
S214009600014B186835F036BC203C002073B5044684
S2140096102248012A00EAC1119DF8185023F07C4028
S21400962007D9961E012E28D9073303F07F03194366
S21400963008E09DF81C300A43DB0603F0C0531343D2
S21400964043F060410023C4E900108DF80730B5B13F
S214009650202221460DF107002BF08AFE1A220DF17A
S2140096600700211D2BF084FE082063689DF8072064
S21400967043EA8263636002B070BD1143E2E71B22D7
S2140096800DF1070021462BF073FE23689DF8072096
S214009690042043EAC2632360EDE700BF80FFFF07B4
S2140096A038B5094B0D461A680021044611F052FBE6
S2140096B000234FF0FF322383C4E900252361A26014
S2140096C0E382A37638BD00BFA48F04000138C0B281
S2140096D005289ABF014B185C01207047A98F04002B
S2140096E02DE9F0410746154600240E46596888B015
S2140096F0490A012922464FEA510104F10104F8D82B
S214009700DC78997824031B88C90201F4006104F40C
S21400971080540C43C3F30A035203234492B24FF01F
S21400972000089C18274B6FEA0444039325F07843FF
S214009730ED4302A90DF107001B2202938DF8078066
S2140097402BF016FE9DF80720029B02A943EAC2638F
S2140097500DF107001B2225F07845049302958DF83D
S21400976007802BF005FE9DF80720029B6FEA144445
S21400977043EAC26305934FF0FF330794069307A9A5
S214009780BB69012206F110009847BB6905A904468B
S214009790012206F108009847BB69404518BF0446F9
S2140097A004A90122301D98470122404518BF0446EF
S2140097B0BB69304603A99847404508BF204608B015
S2140097C0BDE8F08101009AB238B5104B0546D3F8D3
S2140097D000310C4603F00303022B0BD0032B0DD0F5
S2140097E0012B0FD133F024FC032305B1286004B10C
S2140097F0236038BD33F066FC0723F6E735F052FBEE
S2140098000623F2E701230020EFE700BF00800050A8
S21400981038B5134B0546D3F820010C4600F0070078
S21400982004281AD8DFE800F003090D1115000123FB
S21400983005B1286004B1236038BD33F0BFFB0423B4
S214009840F6E733F0F5FB0323F2E733F0F7FB0523E7
S214009850EEE733F0E9FB0223EAE700231846E7E7E2
S2140098600080005038B5104B0546D3F840310C4602
S21400987003F00303022B0BD0032B0DD0012B0FD1CB
S21400988035F012FB082305B1286004B1236038BD0B
S21400989033F018FC0723F6E735F009FB0923F2E757
S2140098A001230020EFE700BF0080005038B5104BC2
S2140098B00546D3F860310C4603F00303022B0BD0A9
