S01B00006275696C642F72656C656173652F7A69676265652E73333714
S21400600008100020319A000051E20000796A03006F
S214006010796A030059E2000061E20000796A030031
S214006020796A0300796A0300796A0300796A0300D3
S21400603065E200002CAE0400796A0300796A03006A
S214006040796A0300796A0300796A03000195000003
S214006050796A0300796A0300796A0300796A0300A3
S214006060796A0300796A0300796A0300796A030093
S214006070D1E70000796A0300796A0300796A0300B1
S214006080796A0300796A0300796A0300796A030073
S214006090796A0300796A0300796A0300796A030063
S2140060A0796A0300FD9D0000DD9D0000796A03000B
S2140060B0796A0300A9260200796A03000D310200FE
S2140060C079C3030075C30300E92802008FC30300E9
S2140060D07DC30300DD30020081C303004D310200A2
S2140060E0B9370200B5140200B9310200796A03001C
S2140060F0796A0300796A0300796A0300796A030003
S214006100796A0300796A0300796A0300796A0300F2
S214006110796A0300796A0300796A0300796A0300E2
S214006120796A0300796A0300796A0300796A0300D2
S214006130796A0300796A0300796A0300796A0300C2
S21400614082B030BF074BD3F8F030DB0704D500230E
S2140061500193019B052B01DD02B07047019B0133C3
S214006160F6E700BF00ED00E0F0B5114A114C124E04
S21400617000F00105E3695F0713D40DB9334213D16C
S21400618003EA00078F4207D10B4A1A40002A14BFC1
S2140061906FF001000020F0BD013AEBD16FF0020075
S2140061A0F9E74FF0FF30F6E76FF00100F3E700BFC6
S2140061B08096980000000350020001000B4B70B55B
S2140061C0D96911F480310DD101244FF48072084E44
S2140061D0084DF46020462C641A61FFF7C5FF34644E
S2140061E0EC6070BD6FF00100FBE700BF00000350DD
S2140061F000100350002003504FF4003238B50F4B08
S2140062000F4C9A6641F671330122E569E3630D4B44
S2140062100021DA60022360612120236105F48035C5
S214006220FFF7A2FF10B92120FFF79EFF0122064BC1
S214006230DA600DB10023E36338BD00BF0090005064
S21400624000000350001003500020035070B5134C9C
S2140062506061E3695B071ED40E4656F8043B8D1852
S214006260A361AE420BD10423002121202361FFF756
S2140062707BFF58B9BDE870402120FFF775BF0821A5
S2140062800846FFF771FF10B10423236170BD56F86E
S214006290043BA361E5E74FF0FF30F7E7000003504B
S2140062A02DE9F84315464FF40032184B89469A6696
S2140062B041F6713203F51C33DF69DA6301220646C4
S2140062C003F58053DFF84C8007F48037DA6055B961
S2140062D0284601220E4BDA601FB10022A3F50053B8
S2140062E0DA63BDE8F88306F5005404EA0804A41B44
S2140062F0AC4228BF2C46494622463046FFF7A6FF4A
S2140063000028E6D12644A1442D1BE0E7009000506B
S20C0063100020035000E0FFFF2F
S2140063182DE9F04F4FF0FD0BC9B09A460DF11B0959
S2140063289DF8503108AFCDF80C90CDF808B001971D
S214006338059303890446009383790E469046418860
S2140063488288407811F0F0FE054650B10090A38888
S214006358002062883A4912F02BFA284649B0BDE870
S214006368F08F99F8000033F0DDFA38B12846A38894
S2140063786288344912F01CFA8D25EEE75A463946EB
S21400638899F8000033F076FA8346002851D0529BDD
S2140063981BB1BDF84C3198424BD8002399F80090B1
S2140063A80793A9F14102012A5FFA8BF123D83846F0
S2140063B80139254ADFF898C05FFA81FE734513DB7A
S2140063C8059B04210792C3B907AF18221F489FED03
S2140063D81A7B02FB060420460A460830394684ED36
S2140063E8027B17F067F811E010F8011F01335140DF
S2140063F80CFB01F2E2E7059B33B123464A463846D2
S21400640800960FF0B9FDA8E70829DED9B8F1000F05
S21400641801D088F80090BAF1000F01D0AAF800B0B1
S214006428529B002B99D05A46184608A917F042F8EE
S21400643893E7012591E700BF000000000000000078
S214006448B7570400EC570400C59D1C818010002037
S21400645893010001000000002DE9F04F93B0CDE94C
S2140064680A32DDE91C530E9353EC102BCDE90801D4
S214006478104619468DED060B1E9E16F0A5FA80B13D
S214006488DDE906014FF0FF32C54B16F0C5FA40B9F4
S214006498DDE906014FF0FF326FF4801316F09EFA1E
S2140064A870B1DDE908019DED060B0E9B1E96CDE941
S2140064B81C53DDE90A3213B0BDE8F04F00F088B986
S2140064C80022DDE90601002316F088FA002800F00D
S2140064D83381DDE906A303F1004BCBF30A5016F42B
S2140064E88063A0F2FF3008BF06250F9315F09AFFC9
S2140064F89BA3D3E9002315F0FFFF9BA3D3E9002352
S21400650815F044FECBF31304894644F07F518046C9
S2140065180022A44B504641F4401115F035FE94A3D2
S214006528D3E9002315F0E8FF02460B4640464946E5
S21400653815F02CFE16F07AFA044615F073FF8EA3B3
S214006548D3E900238046894615F0D6FF0022964BED
S21400655815F01CFE16F06AFA89A3D3E9002307464D
S2140065684946404615F0C8FF80463846894615F025
S21400657859FF85A3D3E9002315F0BEFF02460B4654
S2140065884046494615F000FE02460B46CDE90C2368
S21400659815F0B2FFDDE90C238046894610461946F9
S2140065A815F0F4FD0022CDE91001804B404649461F
S2140065B816F0CCF800227E4B15F0E8FD02460B4696
S2140065C84046494616F0C2F800227A4B15F0DEFD22
S2140065D802460B464046494616F0B8F8DDE90C2355
S2140065E88046894600204FF0804115F0CDFD0246D2
S2140065F80B464046494615F0C9FD02460B46DDE9FE
S214006608100116F0A3F807F2FF3700226A4B15F0C0
S214006618BDFD00223B0515F06FFF52465B468046DF
S214006628894616F0F9F9002840F08980CDE90C89EA
S21400663804F16303C62B8CBF0527042731051BD539
S21400664853A3D3E900235046594616F0DBF9002831
S2140066587FD051A3D3E900235046594616F0BEF919
S214006668002876D00027A542C6BF2C1B04F1FF35AC
S21400667800253C4646F480660E9B9F422CBF4FF092
S2140066880008A3EB070816F0020903D0002F18BF6E
S2140066984FF000083CB1DDE90C235046594616F089
S2140066A855F882468B46DDE906010022002316F0DF
S2140066B895F910B10BF100439B46DDE9080126F475
S2140066C80063CDE90183DDE90A324BEC10AB009597
S2140066D800F07EF802465FB3DDE9091316F0200FD6
S2140066E800F10105089E0CBF65204520B047DDE98E
S2140066F808010523002205930A23002CCDE902325F
S21400670807F1FF374FEAD473B8BF64422A460193AD
S21400671804970A9B009435F073F80246B9F1000F07
S21400672806D00B9BC41A0B9B1A190E9BA34245D87E
S214006738104613B0BDE8F08FDDE906ABCDE60022C3
S214006748404649461A4B16F001F8013CCDE90C01C3
S2140067586EE7002D90D00F9B002B8DD0013D8BE768
S214006768FB799F501344D33FB3C8608B288AC63F33
S21400677861436F63A787D23F71A379094F930A4095
S2140067881655B5BBB16B0240EF39FAFE422EE63F0E
S2140067982D431CEBE2361A3F0000000080842E4191
S2140067A8FFFFEF7F0000F83F0000E03F00002C40AE
S2140067B800002440000018400000F03F2020DDE9DB
S2140067C80913089DA8470134ADE700BF0000000084
S2140067D82DE9F04F5BEC10AB97B0CDE90501DDE98C
S2140067E82058CDE90723504652465B465946229F15
S2140067F816F0EAF870B90323CDE902870193AA4B8D
S2140068080093DDE90501DDE9072334F02BFF17B017
S214006818BDE8F08F4FF0FF326FF4801350465946AC
S21400682816F0DCF828B10423CDE9028701939F4BC4
S214006838E6E74FF0FF32504659469D4B16F0ECF807
S21400684868B19C4A07F00403002B08BF03229A4B42
S2140068581CBF13460422CDE902870192D0E75046B2
S2140068688DA3D3E90023594616F0D6F838B98CA379
S214006878D3E900235046594616F0B0F868B1DDE96A
S2140068880723DDE905014BEC10ABCDE92187209500
S21400689817B0BDE8F04FFFF7DFBD002200235046D3
S2140068A8594616F09BF8002800F091805B46524641
S2140068B80020002115F068FC012382468B460993C8
S2140068C817F4806400F08580092D40F28580002446
S2140068D830210EABA5F109020134202C03F8011B68
S2140068E8A5EB040901D09442F6D15946504616F055
S2140068F89DF8724B054603EBC90393ED007B8DEDBF
S2140069080A7B15F08FFD02460B465046594615F091
S2140069183BFCDDE90A2315F0EFFD02460B46CDE900
S2140069280C2316F0ABF8064615F06CFD02460B462F
S214006938DDE90C0115F028FC02460B46CDE90C23D0
S21400694800225F4B16F068F8002848D0013630461B
S21400695815F058FD02460B46DDE90A0116F048F820
S21400696808B100260135B9F1000F45D1284615F0C3
S21400697859FD02460B465046594615F005FC0022BE
S2140069884F4B16F02BF810B9E90700D501350A2148
S2140069980EAB1A19202C0AD095FBF1F001FB105506
S2140069A8303502F8015B013405460028F2D107F0BD
S2140069B80302012A55D1B8F1000F52D0099A12B92C
S2140069C817F00C0F01D008F1FF38302240E009908C
S2140069D876E74FF0060988E7A946002485E70022EF
S2140069E8DDE90C01364B15F0F9FF0028BBD10EB1D6
S2140069F8F007B8D50136B6E70A210EAB1A19202CCF
S214006A080DD0B6FBF1F001FB1063092E03F130033D
S214006A1809F1FF3904F1010402F8013B11D83021CD
S214006A28A1440EAA202CB2D04C4504F101030AD189
S214006A3804F158020DEB02042E2204F8202C1C4602
S214006A48A5E70646DBE7A1541C46EBE71A550134D2
S214006A58444506D2202CF9D1CDE9028701940EAB25
S214006A68CEE6202CF8D0099B3BB12D2204F1580322
S214006A786B4403F8202C0134EEE77A0704D504F1BA
S214006A8858032B226B44F4E73B07E5D504F158037B
S214006A9820226B44EDE700BF0000000065CDCD4125
S214006AA80000000065CDCDC1A6750400AA750400D7
S214006AB8FFFFEF7F9D750400A275040028BD040043
S214006AC80000E03F0000000070B58EB02C220021C8
S214006AD803A816F05FFB64234FF002320893CDE953
S214006AE805230B2301218DF834305B4B8DF81010ED
S214006AF81D880D4040F0A980084639F055F90A224D
S214006B08564B574C1A704FF42873ADF812304FF0A6
S214006B18FF332360534B54491B8820460B82534B44
S214006B28534A1B68CD828B61524B0D621B884B8281
S214006B38514B1B68CB611CF007FC20B14FF41B714E
S214006B484E483AF004FA0521206835F0B7FC20B123
S214006B5840F27D2149483AF0FAF9206815F0D0FA53
S214006B68474B2068196835F023F80C2539F084FD62
S214006B786843099039F080FD68430DEB05010790DE
S214006B88206816F0A3FF20B140F295213B483AF062
S214006B98DEF925681FF074F900220146284635F00C
S214006BA87FF820B140F2972134483AF0D0F940F205
S214006BB80353344D344E2B80052396F90000AB70F2
S214006BC87F2801D11CF0A8FE3378EB7039F054FD0D
S214006BD800EB80008000A88039F04EFD0023C0003E
S214006BE84FF0FF31E880AB604FF0FF3018A3D3E9D1
S214006BF8002339F02BFA2549206835F00AF8206872
S214006C0802A935F002FD20B14FF434711B483AF062
S214006C189EF9042220680DEB020134F09EFF04283A
S214006C2804D040F2D72115483AF091F901A901207D
S214006C3834F069FB07F04CFB01201DF0FFFA30F03A
S214006C4805FD1DF025FB1CF0FFFD0EB070BD00BF56
S214006C580A0020FF42030000B25B00200F630020FA
S214006C68E45300204CD604000C6A002054D60400D6
S214006C78D9FD03004AD6040050D60400D5AC04005B
S214006C8854670020D8530020286D00204DFE0300CE
S214006C980348044B834202D0034B03B1184770479E
S214006CA85C6D00205C6D002000000000064B074964
S214006CB8C91A891048BF0131491003D0044B0BB1DB
S214006CC801481847704700BF5C6D00205C6D0020C7
S214006CD80000000010B5064C237843B9FFF7D8FF2C
S214006CE8044B13B10448AFF300800123237010BD92
S214006CF870160020000000008C11050008B5044B33
S214006D081BB104490448AFF30080BDE80840CDE74E
S214006D1800000000741600208C110500A3F5803AC8
S214006D28704700BF154B002B08BF114B9D46FFF759
S214006D38F5FF00218B460F461148124A121A16F024
S214006D4829FA0C4B002B00D098470B4B002B00D091
S214006D5898470020002104000D000B4816F060FD3F
S214006D6816F0F0F9200029002FF0C8FB16F046FDB3
S214006D7800000800000000000000000008100020C6
S214006D88081000207463002091D8010007B501217F
S214006D9820200DF1070201F029F850B1012120202A
S214006DA80DF107028DF8071001F030F803B05DF812
S214006DB804FB9DF807100129F8D00122084815F0B1
S214006DC8CBF801210DF1070220208DF8071001F0FD
S214006DD81DF82FF015FB4FF4FA6000F04FFEE5E7BC
S214006DE8B013040038B501F099F9012805D001F070
S214006DF895F9022801D001F0B7F9064D2B783BB972
S214006E0801F08CF90128044602D12FF06EFB2C7095
S214006E1838BD00BF9E5C002010B5044600882FF0E1
S214006E28C3FAA37884F84400834202BF0123E370C0
S214006E382371074B04F11C00C4E9073401F02CF851
S214006E48224620880349BDE8104000F069BF00BF0D
S214006E58476103001161030070B5C37804460D4608
S214006E681646002B34D1D1B1214815F075F8012308
S214006E78E370E36CA6600BB1E06D9847E368F61A1A
S214006E8863699E4221D2217E1A480131C9B2217611
S214006E9815F062F8A36D13B1217EE06D9847E57092
S214006EA82FF0C1FA15B3237903BBA268238A801A88
S214006EB883421BD801231048237115F04DF8236D23
S214006EC8A3B1E06DBDE87040184701232376E6E7D6
S214006ED80029E4D1094815F03FF8636DE660E570CF
S214006EE82571002BDBD0E06D9847D8E770BD00BF52
S214006EF8D8130400E913040017140400041404004B
S214006F0870B51E46838804460D46C18002810BB1C3
S214006F18868070BD817800882FF032F90123E370EF
S214006F28064BA680C4E903340C34204600F0B4FFB0
S214006F3829462046BDE870402FF06CBA93610300DE
S214006F4810B501790446B1FA81F1008849092FF095
S214006F588EF921796088B1FA81F149092FF087F90D
S214006F68034B1A68A24204BF00221A6010BD00BF75
S214006F788C16002070B543790446A3B100880E4EDF
S214006F8804F10805336813B10C4B1B786BB12179F3
S214006F982FF06DF964210A4B3460A3602846BDE8DB
S214006FA870402FF037BA4088E9E7064814F0D4FF57
S214006FB8054B3221A360F1E78C1600209F5C002069
S214006FC8496F00002D1404007D6F000010B50446BC
S214006FD8E0B10F4814F0C0FF01236371A37953B9D9
S214006FE8217920882FF043F9236B7BB1606B012150
S214006FF8BDE8104018472046FFF7A2FF04F1080036
S2140070082FF00DFA2046FFF7B5FFEDE710BD00BFDD
S2140070186314040010B50446F8B1104814F09CFF39
S21400702800236371A3796BB921792088B1FA81F1BD
S21400703849092FF01CF9236B7BB1606B0021BDE872
S214007048104018472046FFF77BFF04F108002FF092
S214007058E6F92046FFF78EFFEDE710BD6E14040034
S21400706810B5044668B1074814F076FF63792046E1
S2140070781BB1BDE81040FFF7CDBFBDE81040FFF7D5
S214007088A5BF10BD7A14040010B50E4C0E48214654
S21400709814F062FF82210D4814F05EFF8221022060
S2140070A8A21E00F0B3FE014630B134F8022C0848A0
S2140070B8BDE8104014F050BF0648BDE8104014F074
S2140070C84BBF00BF3655002089140400A4140400E2
S2140070D8AF140400F314040038B5114C822122467C
S2140070E8022000F083FEA51C014688B122880D48C0
S2140070F814F032FF2A460C4B03F12C0153F8040B0C
S2140071088B4242F8040BF9D11B7813702C2323808A
S21400711835F8021C054A0648BDE8384014F01CBF7E
S21400712834550020FE1404007E1504003655002051
S2140071385C150400034B1B781BB18B4201D82FF05B
S2140071485FB97047CA6C002010B5044601460E4861
S21400715814F002FF012C11D10C4B0D481A884FF67B
S214007168FF739A421EBF0022094B5A742FF065F827
S21400717801F09CFDBDE8104001F06EBC0448BDE877
S21400718810402FF05CB800BFAB1504007C6C0020E4
S214007198E066002070B500241A4D1B4E3378A342D3
S2140071A81BDC0024194D1A4E3378A3421BDC00243E
S2140071B8184D194E3378A3421BDC00F0AFFF0128A8
S2140071C816481CD12FF039F801F070FD01F044FC88
S2140071D8BDE87040124800F0C1BF2846FFF71CFE05
S2140071E801346035DAE728462FF00DF801343435D7
S2140071F8DAE728462FF040F801343835DAE72FF07A
S2140072081EF8E5E7C0210020A55C0020E025002048
S214007218A65C0020901F0020A45C0020E0660020EA
S214007228517100002DE9F04F87B0FFF755FFB34BBB
S21400723805A805932FF044F8054615F0A7FEB04CB0
S214007248C2B21F2A627004D9AE4814F085FE00F058
S21400725809FC2946A01C16F02DF905A82FF030F8D1
S214007268054615F093FEC2B21F2A84F8212001D9DC
S214007278A548EAE7294604F1220016F01BF905A8F6
S2140072882FF01EF83226044600272578002D40F0F9
S21400729892809E4CFFF77EFF2378DFF8ACA2DFF8DB
S2140072A8AC829B4E00939AF8003098F8002031780C
S2140072B8984814F051FE327898F800109AF80000B2
S2140072C853180344944F20782C4603443846DBB2C0
S2140072D8AA4200F3D782012B38BF0123DFF840B259
S2140072E802935A4600235D464FF482714FF6FF74A8
S2140072F802980133834213705180948002F10C0285
S214007308F6DB864B86497E48AB6000F0DDFFE87901
S214007318AB6800EB400003EB800000F0B1FDEB79B2
S2140073280133EB717F4B1B88A34203D07C497E4810
S21400733801F0CCF84FF00009784C32784A4500F353
S214007348CB8200274FF00C09784ADFF8D4B198F8BA
S21400735800003178B84200F3D48247180C21002583
S21400736801FB07B19AF800009423A842704A00F37C
S214007378E6820C2598F8003000274FF0700836781B
S214007388DFF8CCA11E44064405FB06B55F4B1B7808
S214007398BB4200F3E7820299614800F0FFFD059BB7
S2140073A856491A468B4240F0F082624807B0BDE85C
S2140073B8F04F14F0D1BD532D0FD163784C2B40F00D
S2140073C84781A378502B40F0438101225A4B1A700C
S2140073D805A82EF075FF044657E7442D13D16378A9
S2140073E8303B092BF4D8601C2EF077FF534B544AD9
S2140073F81978002386B2994202F16002E8DD22F885
S214007408466C0133F7E7422D0BD16378542B55D1E0
S214007418A01C00F0D3FC434B188018462EF051FEF3
S214007428D6E7582D34D8412DD2D9433D152DCFD87F
S21400743801A353F825F000BFFB770000D9730000BE
S214007448D9730000D9730000D9730000D9730000FF
S214007458AB750000D9730000D97300005D75000095
S214007468AB740000D9730000D9730000D97300000C
S214007478D9730000DD76000059760000D973000045
S214007488D9730000D9730000D97300005377000041
S214007498692D9DD1601C2EF020FF80B22EF0ACFF27
S2140074A896E71B4B0120197800231B4A994202F1E4
S2140074B8A8028DDD02F8A60C0133F7E7601C00F081
S2140074C87DFC0546E01C2EF080FF0121024628467A
S2140074D82EF037FF60211948194C03785943621873
S2140074E865524FF4FA6111824FF44871516115499B
S2140074F856831165013303706AE700BF36550020CE
S214007508F4650020CA150400E1150400A05C0020FC
S214007518A35C0020F1150400E41C00205817002086
S214007528E01600207C6C002090160020E41B00204B
S214007538281A0020411604009F5C0020A55C002045
S214007548C0210020B3620300A15C0020A25C0020DA
S214007558D8180020601C00F031FC00224FF03408D8
S2140075688146CD4F11462EF0ECFE3878CB4D08FB01
S21400757800F325F80390EA18E3781046693B18BF2D
S214007588012393702EF03FFE0021C54A3B785160D8
S214007598012103FB08550B443B7015600F46117418
S2140075A816E7601C00F00AFC0022114681462EF001
S2140075B8C8FE3422B84DDFF8E482287802FB00F3D0
S2140075C828F8039008EB0301E3780846693B18BFE0
S2140075D801238B702EF017FEB24A00231046916BDB
S2140075E831BB00EB831034232A7802FB03838363C2
S2140075F8AD4A00231046D2F8A410F9B9A82202FB17
S214007608030034232A7802FB0383C0F8A4305FB94A
S214007618A34A3B46114652F8040BA8B934222878E8
S21400762800FB028241F823202B7801332B70CFE62B
S2140076380133042B02F14002D1D1D9E70133042BE0
S21400764802F1A802D7D1E2E70133042BE3D1EBE736
S214007658601C00F0B3FB8046E01C2EF0B6FE01214D
S214007668024640462EF06DFE60219048904D027806
S214007678DFF858C251436B1825F801804FF448715B
S214007688198259618B495E839965E178A824642933
S21400769804BF012199709CF80030DFF80CE25C43C7
S2140076A80EEB04010EF804304FF400744C800324EB
S2140076B80C718C7102EB420405EB4415322401333D
S2140076C8DBB201324B718D6081F8A04002708CF8F5
S2140076D800307DE6601C00F071FB00224FF0380A8F
S2140076E88146DFF8E08111462EF02BFE98F8003030
S2140076F8714D0AFB03F325F803904FF00109EA18C9
S21400770882F80490E37873B1E01C00F057FB00227F
S214007718044611462EF015FE98F800300AFB03536F
S2140077285C8083F8069065485E4A0378990153544E
S21400773898F8001002EB8314C1EBC10205EBC205F2
S2140077484A1C656388F80020D4E6601C00F036FB07
S2140077588046E01C00F032FB0546601D2EF035FE24
S21400776804460246012140462EF0EBFD22462846F6
S21400777801212EF0E6FD60204FF4487CDFF82CE16E
S2140077884B4A9EF8003000FB03F422F80480DFF82A
S21400779824811119A1F810C0C1F814C04E83C1F88D
S2140077A85880591CC9B248431418A4F810C0C4F825
S2140077B814C06683C4F8588094241552404D981C0B
S2140077C88EF800002878DFF808C1444303EB43032B
S2140077D801EB41010CEB040E02EB431302EB4112E2
S2140077E80CF80400CEF80430CEF8082001302870D3
S2140077F8EEE5601C00F0E2FA8046E01C00F0DEFAD7
S21400780800220546114640462EF09BFD00223824ED
S214007818114628462EF095FD2A48274A03784FF049
S214007828000E04FB03FC22F80C804FF0010802EB64
S2140078380C0181F806E081F8048003EB0801C9B260
S2140078484C4302EB040C15539C1C047070241E4D0C
S2140078588CF806E028788CF804804443DFF874C077
S214007868C3EBC303C1EBC1010CEB040E02EBC3036D
S21400787802EBC1020CF80400CEF80430CEF808205B
S2140078884044B4E790F805C001358C4584BF0471C0
S2140078984471A8301CE500BFA65C0020E025002047
S2140078A8E0660020E41B0020E41C0020A55C002005
S2140078B8C02100203D710000901F0020A25C00201F
S2140078C8A15C0020A45C0020A05C0020A35C002033
S2140078D8281A0020D8180020B9F1000F07D01BF886
S2140078E8052C02EB420204EB8204CBF8084059460A
S2140078F8384601F0AFFB09F10109A8370BF10C0B6C
S2140079081BE579180AD0481E09FB00B0C07900EBC1
S214007918400004EB800409FB01B08460104609FBB4
S2140079280151039201F054F931781C48394409FB97
S214007938015101F077F8039A0137403207E5FD4216
S21400794818BF11F8050C03911EBF00EB400004EBAE
S21400795880048C6003FB052000F07CFF039901354A
S2140079680C31FFE4F74218BF15F8053C29461CBF42
S21400797803EB430304EB830408FB07A018BFAC60C3
S21400798800F03EFE01370C3500E513F8011D00290E
S2140079987FF406AD3B2102F8011C01E5841F002098
S2140079A807B5012121200DF1070200F01FFA18B9CA
S2140079B89DF80720024B1A7003B05DF804FB00BF61
S2140079C8CA6C002007B5064B8DF807001870012111
S2140079D80DF10702212000F019FA03B05DF804FB48
S2140079E8CA6C002007B5022101200DF1060200F03E
S2140079F8FDF938B9044814F0AFFABDF8060003B02C
S214007A085DF804FB0020FAE75E16040007B50221BD
S214007A18ADF806000DF10602012000F0F7F9014660
S214007A2810B1034814F098FA03B05DF804FB00BFE1
S214007A387F16040010B5FFF7D5FF04460146074831
S214007A4814F08AFA0121064814F086FA24B9BDE82B
S214007A5810400120FFF7DABF10BD00BFAF160400C4
S214007A68C116040008B5044814F076FA00F0DEF9EA
S214007A782EF0C6FC2EF0C1FCD716040038B5044616
S214007A88084D094B28462B6000F006FA002C18BF54
S214007A9821462846BDE8384008BF4FF496712EF0B8
S214007AA8B9BC00BFE4260020016303002DE9F043BB
S214007AB8394D93B008AC0746894690460FCD0FC49B
S214007AC80FCD00260FC495E803000323012584E89C
S214007AD80300324C3248CDE90366CDE905668DF8D9
S214007AE80E300796029539F0CCF92E4839F0C9F9C8
S214007AF832462D4920468DF8176004F04BFE334673
S214007B0832462A498DF81900009020468DF82390B1
S214007B18CDF82C808DF8216004F056FE0A90204699
S214007B288DF8097004F0B6FD204608AA05A904F0E9
S214007B3871FE02AA204603A92FF006FD4FF4007234
S214007B481B4B5A62194BE560626A920510D46BB9F2
S214007B584FF40072164B11485A6204F09BFD114808
S214007B6839F092F9002013B0BDE8F083013BEBE74B
S214007B78002BEDD0094908A82FF019FD4FF4007224
S214007B880B4B06485A6204F085FD064839F07CF926
S214007B98BDF82000E7E700BFDCAD04000040005A4F
S214007BA82CB0040028B0040080841E0040420F0059
S214007BB80060005A0122034B1870034B1980034BD0
S214007BC81A707047A85C0020846C0020A75C002010
S214007BD8F8B5454B1B780BB90020F8BD434B1B780E
S214007BE8012B03D1BDE8F8402EF089BB404B1C881A
S214007BF84FF6FF739C42EFD03E4839F042F9002317
S214007C08260AE4B21A462146304604F003FD012E41
S214007C18354604F0010335D015D9B51E012DDBD83D
S214007C28002B0BBF4FF480754FF080754FF47061D2
S214007C384FF070610BBF01274FF480370F204FF4C9
S214007C4870202D4B11E0002B0BBF4FF480754FF0C2
S214007C5880754FF470614FF070610BBF01274FF4C9
S214007C6880370F204FF47020244B1A6802401CD02F
S214007C78BA421AD01A680A4032D11A6822EA0102B1
S214007C882A4316E0002B0BBF4FF480754FF0807523
S214007C984FF470614FF070610BBF01274FF48037C7
S214007CA80F204FF47020164BDFE71A6822EA00020E
S214007CB83A431A602EF023FB054600288CD0083677
S214007CC844EA06102A460321C0B2FFF7EFFE40F644
S214007CD8FF73684300F2FF70B0FBF3F080B27CE7F6
S214007CE895427FF479AFC8E7A75C0020A85C00201F
S214007CF8846C00202CB0040028C3035020C3035013
S214007D0824C3035010B5044C237823B9034839F02C
S214007D18B8F80123237010BDAA5C00202CB004001C
S214007D282DE9F0431F4C85B0074688469146FFF775
S214007D38E9FF23781BB901F013FF012323707BBAF0
S214007D48ADF80C3030220023174E02FB03F4315DE9
S214007D58A51901BB012333554FF0FF3304F110007A
S214007D6812493044AB606F80C5F80480C5F80C90A3
S214007D7809F0EEF904F10801042231440C4B009591
S214007D8803A801F0C3FFA96802460A4814F0E4F8FD
S214007D9805B0BDE8F0830133102BD6D1064814F0A1
S214007DA8DBF8F5E7A95C00200C2700202B6303000E
S214007DB83D630300E41604001217040080B102783D
S214007DC8A2F14103032B0BD840783038C0B20828FC
S214007DD806D8054B134413F8413C40EA0320704785
S214007DE84FF6FF70704700BF04AE040008B50B4698
S214007DF842B101460448006803F0D0F8BDE80840E0
S214007E082EF0F4BA022008BD4C67002008B50B46D1
S214007E1842B101460448006803F048FABDE8084045
S214007E282EF0E4BA022008BD4C670020F0B5002604
S214007E38124F8DB0FF2300930A223346386802A9F2
S214007E482FF027F9C0B102AB1D4603EB800404E00F
S214007E5855F8043BB34228BF5E1CAC423868E9D9E3
S214007E68296803F0A9FB0028F2D02D28F0D00DB021
S214007E78BDE8F0402EF0BABA0DB0F0BD4C67002051
S214007E8828B1034B0360034B4360002383607047AD
S214007E9819000003F4660020FF2307B50021044AF2
S214007EA80093083009F0D8F803B05DF804FB00BF6B
S214007EB8176403000B460449024608680349097814
S214007EC808B12EF0B7BA7047182A0020AC5C00201C
S214007ED8F7B50C4618B12921194839F038F824683E
S214007EE823685E795F8830463946FFF7E3FFF0B1CE
S214007EF88568E5B1A089227D3946904291BF002069
S214007F08801AA36880B294BF03469B18E27C009050
S214007F183046A8470138032803D8DFE800F0080FE2
S214007F280B0D0024204632F067FA204600E0812038
S214007F3803B0F0BD8024F5E79324F3E78724F1E740
S214007F483A170400F8B515460D4A044610680D4A57
S214007F580B46117850B122462EF06CFA034628B12B
S214007F6800210C27C678B14201DB0020F8BD07FBCC
S214007F7801F45A681019125BAA42F7D00131F2E7E9
S214007F88182A0020AC5C002008B5034B1B6803B118
S214007F989847002008BD00BF142A00202DE9F74F97
S214007FA804460D460026454B454F1860454B19704C
S214007FB833010021F85C01360FF0A4FE0C2EF7D131
S214007FC80C2D28BF0C254FF0000901953C4EDFF814
S214007FD800A13D4DDFF8FC80019B4B4502DC03B059
S214007FE8BDE8F08F23784FF0000B337063887380FA
S214007FF8A388B380A379C6F80880B371E379C8F874
S214008008005088F804304FF00003A768A8F8063038
S214008018E3795B450ADC012116F8100B0FF072FEB7
S21400802808F1080809F101090C34D5E74FF00003F8
S21400803838886B812880FB784FF0000C2B81BA7843
S214008048C5F804A0002A00920CBF802240222A739A
S21400805879680AF10C02634513DC03EB43030AEB69
S214008068830ABB6843B1009A4FF6FF71B2FA82F2F0
S214008078164B520932F050F914350BF1010B0C3738
S214008088C6E7B1F800E00CF1010C22F80CEC91F808
S21400809802E00C3202F816EC91F804E00C3102F813
S2140080A815EC11F809ECBEF1010F14BF4FF0100ED5
S2140080B84FF0110E02F814ECCDE700BF182A002086
S2140080C800410020AC5C00201C300020D97E000057
S2140080D81C2A00209C320020014B1860704700BF05
S2140080E8102A002070B5128805460E46FFF72AFFAC
S2140080F8044670B102790499806815F09DF8064B1D
S2140081081B680BB9002070BD314628462288984760
S214008118F8E78620F7E700BF102A002008B50EF01B
S2140081288DFE022806D0012806D0044B1878400099
S214008138C0B208BD0120FCE70220FAE7AB5C0020CD
S214008148054B10B51C682CB1FFF7E8FF2346BDE8C1
S2140081581040184710BD00BF0C2A0020014B1860BD
S214008168704700BF0C2A0020034B1A781AB9012260
S2140081781A700AF069BE7047AB5C00200022024BFA
S2140081881A70FFF7DDBF00BFAB5C002037B50446AA
S214008198002832D00EF052FE022830D1608932F024
S2140081A8A8FCE079237A003818BF0120012B637AEF
S2140081B808BF40F008000BB140F0100063890BB10F
S2140081C840F00400257CA188A2790DB1E36873B954
S2140081D80C4B10F073F92178084610F0EBF931F0E3
S2140081E894FF002814BF0320002003B030BDCDE95B
S2140081F80035054B10F062F9EDE70220F5E701209F
S214008208F3E700BFD0640400D333040008B50CF0CD
S21400821879FF014630B1044813F09EFEBDE80840D9
S2140082280DF014BB08BD00BFAC170400034B044A8E
S2140082385B7C012103201370FFF7E8BDE066002091
S214008248AD5C002010B50446FFF7F0FFB4F57F4F8D
S2140082580BD100240F4B1A8813449C70FEF714FFAA
S2140082682046BDE81040FFF709BC4FF601739C4254
S21400827804D1BDE8104008482DF0C7BF4FF602737A
S2140082889C4205D1BDE81040044B1878FFF79ABB0E
S21400829810BD00BF34550020E0660020CA6C0020E0
S2140082A810B5074C012122460320FFF79FFD28B989
S2140082B82378044A003B18BF0123537410BD00BF3F
S2140082C8AD5C0020E0660020F8B5564B564C1A8880
S2140082D84FF6FF739A4218BF03234FF0080218BFE1
S2140082E82370524B30251A7032225A70DA70DA71BF
S2140082F839229D705D7133251A724FF400129D71F4
S2140083084B4D3626C5644B4D426405654A4D0122E1
S21400831885654A4D1E71C565494D86184566494DA1
S214008328C6678566484D494E0567494D80F848201A
S2140083384567202580F8785080F8845000F121059C
S214008348C0F88850434D80F85420C0F88C5080F808
S214008358602080F86C20C0F8806080F89020C0F814
S2140083689440C0F8B8303C4B3C4CC0F8BC300223B4
S214008378C0F898403A4C80F8C030C0F8A4400F24A3
S214008388384B80F8A840C0F8C430374B374CC0F894
S214008398C8308223C0F8AC40354C80F8CC30C0F8E2
S2140083A8B0400924334B344DC0F8D030334B80F8F6
S2140083B8B440C0F8D4302C7C314B80F89C20C0F8F0
S2140083C8A00080F8D820C0F8DC3044B12D4B80F8E7
S2140083D8E420C0F8E03005F11103C0F8E8304FF0AB
S2140083E8000CCA798E6802EB42039F00443006EB05
S2140083F8830326F807C0586001200D349870DC7097
S2140084081318CB71FFF7CCFAFFF74AFFFFF786FE83
S214008418012806D12B7C23B1BDE8F84016482DF07C
S214008428F4BEF8BD7C6C0020CB6C0020AE5C00204F
S2140084381DAE0400010020001CAE0400020020004F
S2140084481BAE0400030020001AAE0400050042001C
S2140084580400420007003000FDFF21001200100152
S2140084680040420018AE040000FF440108AE0400B5
S2140084780600420034550020E066002002FF200176
S214008488CA6C002001FF100113B504460D482DF0F4
S21400849823FE6422C0F30F43637083B2B3FBF2F388
S2140084A8A0782370202201212DF0E6FFA078212253
S2140084B801212DF0E1FF0449201D02B0BDE810405F
S2140084C82DF0A8BF7C6C0020E09304000B7870B5F4
S2140084D883704CF61E0303804FF02013C3620123FB
S2140084E880F8303080F83C30C3180364124B0446DA
S2140084F843640223114A80F84830114B8263C364F0
S2140085084063CA798D6802EB420305EB830004F1E9
S2140085182C0646600B4E45F8236000238360531CE8
S214008528CB71094B201DC4E90134FFF7B5FC204682
S214008538BDE87040FFF7A8BFFDFF2100210020001E
S2140085481EAE04000100010391840000437B044A28
S2140085580121137000781130C0B2FFF757BC00BF76
S214008568B85C002038B504460078054D11302A4618
S2140085780121C0B2FFF73AFC08B92B78637338BDFF
S214008588B85C0020024B53F820002EF03CB800BF21
S214008598FC320020012908B506D0022907D049B9BF
S2140085A82EF028F8002008BD2EF027F8FAE72EF05F
S2140085B827F8F7E7024813F0CFFC0120F3E700BFDF
S2140085C8D917040010B4054C114654F820001A4672
S2140085D8BDF804305DF8044BFFF7DCBFFC32002022
S2140085E8002310B5044683810364A0F8443048305D
S2140085F8FFF752FC014BC4E9123410BDF5650300C1
S21400860838B504460B781A4A43700D4642F82300DC
S214008618FFF7E6FF2046FFF7A5FF4FF44013236158
S2140086280123144A2375A261134A84F82030E261B4
S214008638124A84F82C306262114A84F83830A262F2
S21400864804F10C0222630F4A04F10D036263E3632C
S214008658EA79A86802EB420300EB830110344C6009
S214008668094C40F82340094B8B60531CEB7138BD0E
S214008678FC320020B75C002008002000CC6C0020EC
S21400868800FF300001FF100102010104CD85000043
S21400869810B47024427B0D48013A012904FB0200FD
S2140086A806D0022908D059B95DF8044B2DF0A2BFB0
S2140086B85DF8044B2DF0A1BF5DF8044B2DF0A0BF6C
S2140086C803485DF8044B13F047BC00BFD8180020D9
S2140086D8F5170400B0F85C302DE9F0418B420446EB
S2140086E80E4638D0437B077C8BB31C4A12789A42D6
S2140086F82DD370251A4A013B05FB032390F80F80FB
S2140087081B7B42462DF08DFFB845054601D1FF2854
S2140087181FD13A463146204694F890302DF081FF16
S2140087282F460546552212216078A4F85C602DF085
S214008738A3FEFF2F03D039462046FFF7A9FFFF2DDB
S21400874809D029462046BDE8F0412DF0AABFFF25EE
S214008758DFE70746E6E7BDE8F08100BFA05C00203B
S214008768D818002041688268C978D27849B112B111
S2140087780321FFF7AFBF837B002B0CBF012102212B
S214008788F7E72AB1837B002B0CBF02210121F0E713
S214008798014813F0E1BB00BF06180400037BD3B101
S2140087A84368DA7812B18268D278A2B91B7933B1F5
S2140087B8837B002B0CBF04210521FFF78BBF836842
S2140087C81B792BB1837B002B0CBF05210421F4E712
S2140087D8014813F0C1BB704738180400084A437BA9
S2140087E805211370837B5370C37B9370037CD3700F
S2140087F8037B137100780E30C0B2FFF707BB00BFCB
S214008808B95C002038B5044600780C4D0E302A4670
S2140088180521C0B2FFF7EAFA20B1BDE8384008489B
S21400882813F09ABB2B7863736B78A373AB78E373F8
S214008838EB7823742B79237338BD00BFB95C00200E
S21400884874180400024B53F820002DF074BF00BFC4
S21400885824330020F8B504460B78424A43700D4688
S21400886842F82300404E2DF084FFFFF7CBFF6268E6
S214008878A3683E483E49D6641165D4655065C3E989
S2140088881410DE64DC654FF09873022663610123DA
S21400889804F10C01E16137491032216204F10D013F
S2140088A8A16235492376E16204F10E01616333491A
S2140088B884F82430A16304F10F012164304984F858
S2140088C83030616404F11001E1642E4984F83C30CC
S2140088D884F84830216584F85460A265E879A96868
S2140088E800EB400201EB820704F1140CC7F804C041
S2140088F84FF4817C244F41F82270C218D2B202EBA2
S214008908420241F822C001EB820700227A601F4A21
S21400891884F8703022661E4A84F88830A2661D4A9B
S2140089281D4BE2661D4AC4F88C3062671C4A8319E0
S214008938A26704F15C02C4F88020DBB2194A03EB94
S2140089484303C4F8842084F8646084F87C6001EBF0
S214008958830260345460144A033041F82320E871D7
S214008968F8BD00BF243300206D87000001670300B0
S214008978A587000001002001020010010300300155
S214008988040030010500210101FC01064A0021000F
S21400899820AE04005100100022AE040023AE0400EE
S2140089A8550021006F0018001200010470B50D462E
S2140089B80646144613460A460146164813F0CCFAED
S2140089C825B92046BDE87040FFF73CBC072D05D109
S2140089D821463046BDE8704000F000BB4FF6014324
S2140089E89D4205D121463046BDE87040FFF72ABFB4
S2140089F8062D05D121463046BDE8704000F0A2B8E5
S214008A08B5F5817F05D121463046BDE87040FFF7B1
S214008A18B9BD70BDA31804000148FFF75DBB00BFD1
S214008A28B58900004FF4C01330B503600123037105
S214008A38074B8C688360CA7902EB420304EB830514
S214008A486860044844F82300531CCB7130BD00BF4F
S214008A5824AE04000400010138B50024044D55F87E
S214008A68040B08B12DF095FE01340A2CF7D138BD59
S214008A784C330020042908B50AD172B16BB11378BB
S214008A881BB92DF0B1FE002008BD2DF0A3FEFAE7B5
S214008A98034813F061FA0120F6E70320F4E700BF65
S214008AA8D618040010B4054C114654F820001A468F
S214008AB8BDF804305DF8044BFFF7DCBF4C330020EC
S214008AC80229024608B50ED004D839B910462DF04A
S214008AD88BFE06E04029F9D0412907D110462DF033
S214008AE879FE002008BD2DF089FEFAE7024813F04B
S214008AF833FA0120F6E700BFF618040010B4054C58
S214008B08114654F820001A46BDF804305DF8044BA8
S214008B18FFF7D6BF4C330020426B094B52791A70C8
S214008B2882785A70C2789A70826B12B190F83C209C
S214008B38DA70007804210930014AC0B2FFF766B936
S214008B48BE5C0020024B53F820002DF073BE00BF19
S214008B584C33002038B504460078084D09302A46BC
S214008B680421C0B2FFF742F930B96B78A370AB782E
S214008B78E370EB7884F83C3038BD00BFBE5C00205C
S214008B8838B504460078114D09302A460421C0B28B
S214008B98FFF72CF9C8B9A3782A78022B0CD004D88A
S214008BA863B920462DF020FE01E0FF2B0AD02046B0
S214008BB8BDE838402DF0EDBD002AF2D120462DF054
S214008BC809FEF4E7002AF9D1EBE738BDBE5C0020C1
S214008BD8F8B504460B78284A0D4642F82300437039
S214008BE8FFF7B8FF636B254A5C631A632046FFF7F6
S214008BF8C7FF20462DF0CDFD4FF480136360012398
S214008C08626BA66B0532E2601D4A23722261A21CC3
S214008C182375A26166B11B4A84F82030E261E21C23
S214008C286262194A84F82C3004F13C03A26223637A
S214008C380627EA79A96802EB4203002E21F823707A
S214008C4801EB83000CBF02230423C3700123837047
S214008C580E4B04348360531C4460DBB20C4C03EBAD
S214008C68430341F8234001EB830000234360094B8C
S214008C7802328360EA71F8BD4C330020196803009D
S214008C880340300101FF300102FF1001058B000090
S214008C9808000100AD8A000028B1034B1B78834208
S214008CA834BF002001207047A25C002070B5002564
S214008CB80A4C0B4E3378AB4200DC70BDD4F8A420C7
S214008CC842B123791BB16079FFF7E6FF10B9104669
S214008CD82DF08CFA0135A834ECE700BFE41C002020
S214008CE8A35C002008B5427901461046FFF7D4FF7A
S214008CF8A8B1CB780A48013A042B00EB82100ED8AC
S214008D08012B08D81BB9BDE808402DF063BDBDE8A7
S214008D1808402DF069BDBDE808402DF06FBD08BDC0
S214008D28E41B002008B5427901461046FFF7B4FF59
S214008D38A8B1CB780A48013A042B00EB82100ED86B
S214008D48012B08D81BB9BDE808402DF04DBDBDE87D
S214008D5808402DF03FBDBDE808402DF04FBD08BDCA
S214008D68E41B002010B586B00446FFF7D7F90128A3
S214008D7830D1E278042A2DD8DFE802F01332340323
S214008D88030061790846FFF787FF58B31648032A99
S214008D9800EB811050F80C3C58791DD1003818BFEC
S214008DA8012063784FF480728DF804304FF4827394
S214008DB8ADF806300623ADF8083001238DF80B30E1
S214008DC800238DF80A0001A8CDE903238DF8143096
S214008DD8FFF7DCF906B010BDB0FA80F04009E0E70E
S214008DE80020DEE70220DCE7E41B002010B586B092
S214008DF80446FFF793F9012830D1E278042A2DD8E3
S214008E08DFE802F013133203030061790846FFF720
S214008E1843FF48B31548032A00EB811050F80C3C72
S214008E285B791DD11A1E18BF012263788DF80A20B7
S214008E388DF804304FF48273ADF806300623ADF88B
S214008E48083001234FF480728DF80B30002301A8F8
S214008E58CDE903238DF81430FFF798F906B010BD56
S214008E68B3FA83F25209E0E70222DEE7E41B0020A9
S214008E7810B586B00446FFF751F9012812D1637879
S214008E88094A8DF804304FF48273ADF806304FF473
S214008E988073CDE90223002301A804938DF81430CB
S214008EA8FFF774F906B010BD0800070110B586B0C4
S214008EB80446FFF733F9012820D16278104B8DF865
S214008EC804204FF4827294F8A01094F8A100597008
S214008ED81870ADF8062004934FF4807202230949EF
S214008EE801A88DF81430CDE90212FFF74FF994F86F
S214008EF8A130013B18BF012384F8A13006B010BD8D
S214008F08C25C00200800050110B58378044603B348
S214008F180379022B0AD142791046FFF7BDFE28B125
S214008F280C48013A00EB82102DF068FCA379022B5E
S214008F3802D12046FFF716FF2046FFF7B7FF0223A9
S214008F486078A4F86C305522BDE8104012212DF048
S214008F5893BA10BDE41B00204388094A08211380F1
S214008F688388538083681B8A938090F8A030937117
S214008F788379D37100780430C0B2FEF747BF00BFCC
S214008F88B655002038B50D4604460178114812F04B
S214008F98E3FF4FF602739D420ED10F4B1B782BB999
S214008FA863712046BDE83840FFF7D6BF62790AB13C
S214008FB89342F6D20123F3E7B5F57F4FF1D1204669
S214008FC82DF0B5FCA378022B0CBF01220022A36863
S214008FD89A70E6E712190400A25C0020024B53F8C8
S214008FE82000FFF7CFBF00BF7433002038B5044613
S214008FF80078144D04302A460821C0B2FEF7F6FE63
S21400900820B1BDE83840104812F0A6BF2B88638010
S2140090186B88E978A380AA88A3681A82AB7984F853
S214009028A030EB79A371094B1B780BB9637138BD77
S21400903809B19942FBD9064812F08EFF237801330E
S214009048F4E700BFB65500202C190400A25C0020E7
S21400905855190400F8B504460B78474A0D4642F8F9
S21400906823004370FFF7C2FFA268444BD465D3645D
S214009078434B02265365434BA11C13654FF440131C
S214009088E36001236161E1623F4910322163226592
S214009098211D3E4AA1633E483E49626504F1A0028E
S2140090A8A061E163E265E01C611D3B4A20626164E1
S2140090B83A483B492266A21D2374237784F8283051
S2140090C884F8343084F84030A16484F84C6084F81E
S2140090D8583084F864306062A266E879AA6800EBC3
S2140090E8400102EB810704F10C0CC7F804C04FF0EE
S2140090F8060C2C4F42F82170C118C9B201EB410189
S21400910842F821C002EB810700217960264F84F8D7
S21400911880302767254F84F89830A767244F254B5B
S214009128E767254F84F8746084F88C60C4F89C3030
S21400913804F16C06831CC4F88470C4F890601F4F52
S2140091481F4EDBB203EB4303C4F89460C4F8887080
S21400915802EB83067034746008261A4C42F82340E3
S214009168C31CDBB203EB430302EB8304043042F870
S21400917823606160E871F8BD743300208D680300D1
S214009188D7680300118F000001FF300104FF20019B
S2140091981000300102FF200105FF300100FF3001FA
S2140091A803FF2101070001084A00210026AE04003B
S2140091B85100100028AE040029AE04005500210016
S2140091C86F0018001200010400239B6AB3F5C04F15
S2140091D803D21968064A914203D0002303708360BD
S2140091E87047012202709A689B694260F7E700BFE1
S2140091F807B0CD5E024B034A1A602EF0E8BD00BFEA
S2140092080000002002020FF073B5534B04461A788C
S2140092181AB102221A7002B070BDCDE900220028E9
S214009228F9D001261E7037F00BFE4C4D4C4B1860DB
S21400923817F094F82B785BB902F062FA40B94948FF
S2140092480823494A4949006801F0A8FE00B92E706B
S214009258474B5A6E62619B6E464AA3614FF40043C1
S214009268936603F188435968E16143499960196E2A
S2140092782160596E6160D3F87011A160196CE160C5
S214009288596C21613D49086C1864496C5964012180
S21400929851664FF4005191661A6E560436D5384911
S2140092A8CA68D407FCD45B6E5A0434D5354AD36BE7
S2140092B813F0430FFBD1344B1A68531C31D04FF4CC
S2140092C800139340314A13660423304C68462366DD
S2140092D84FF480632366102323664FF400532366F7
S2140092E84FF0804323664FF4804301A963662DF050
S2140092F836FB009B2366019B63662B78002B8AD07F
S214009308194B1A6822665B68636684E72049CA6850
S214009318D007FCD4C7E71F4AD36B13F0430FFBD123
S214009328C9E71D4B1B78002BCED14FF48072114B2A
S2140093385A661A4A52681AB94FF40011134A116647
S2140093484FF400725A66164B5B68002BBCD14FF47C
S21400935880020E4B1A66B7E7C55C0020C65C002084
S214009368BC3300204C670020C03300200071080082
S214009378008000500090005055CEAC0000C000544D
S214009388000004400000024C1867002000900044CB
S214009398000004500000025CC45C002000C00550B9
S2140093A80000065070B52C4D04462E78012E02D0CB
S2140093B801232B7070BD0028FCD02DF0F5FA013083
S2140093C80BD02DF0F1FA40F20113984205D0234B4A
S2140093D8234A5E66D368DE07FCD4224B22491B6EFE
S2140093E813F0040F4FF4005314BF1C4A1F4A936629
S2140093F8CA6B12F04302FBD121681A4B19666168E2
S2140094085966A168C3F87011E1681964216959643E
S214009418E169C80748BF9A60154B1A6801320DD132
S214009428144A127852B914494968C90748BF1A60DD
S214009438124A5268D20744BF01221A606269104B6A
S2140094485A66A2699A6616F091FF0E4B186837F0AE
S214009458F2FC0023ADE700BFC55C0020009000408A
S21400946800000440008000440000024C00900050B9
S21400947818670020C45C002000C005500000065095
S21400948800800050BC33002070B50024A36AB3F5F2
S214009498C04F23D21A68134B9A421FD1124E337804
S2140094A813F0FD0518D14FF480341048FFF7ACFED2
S2140094B8032004F0B9FC0E4B0320DC6004F098FC93
S2140094C80C4B1C61AB6ADB69984704460748FFF7F4
S2140094D869FF0CB901233370204670BD4FF48174C0
S2140094E8FAE700BF07B0CD5EC45C00209C330020BE
S2140094F800A000440090004413B5204B1B7803B925
S214009508FEE700231E4CCDE900336A4608231D49B2
S214009518206801F043FDF8B91B4AD2F84031D2F86A
S21400952840211F2B4FF0010311D9203A9340019A8E
S2140095381A43019208236A461249206801F0B6FECB
S214009548124B134A1A602EF042FC02B010BD93402C
S214009558009A1A430092EDE72D28F1D10A4AD2F86C
S2140095684031D2F840211F2B4FF0010385BF203A27
S21400957893409340019398BF0093DBE7C55C0020B7
S2140095884C6700200071080000800044000000209E
S2140095980B020FF038B50025AB6A0446B3F5C04F8A
S2140095A810D21B6BB3F5C04F0CD20748FFF72CFE42
S2140095B8AB6A20461B6B5B689847BDE83840024894
S2140095C8FFF7F0BE38BD00BFC833002013B500242F
S2140095D8A36A0190B3F5C04F13D21B6BB3F5C04F07
S2140095E80FD20948FFF710FEA36A01211B6B01A8DA
S2140095F89B69984704460448FFF7D4FE204602B005
S21400960810BD4FF48174F9E7C833002070B5002602
S214009618B36A0446B3F5C04F0D4612D21B6BB3F5BA
S214009628C04F0ED20848FFF7EFFDB36A20461B6B03
S21400963829469B69984704460348FFF7B3FE204629
S21400964870BD4FF48174FAE7C833002070B5002661
S214009658B36A0446B3F5C04F0D4612D21B6BB3F57A
S214009668C04F0ED20848FFF7CFFDB36A20461B6BE3
S2140096782946DB69984704460348FFF793FE2046C9
S21400968870BD4FF48174FAE7C8330020F8B5002798
S214009698BB6A0446B3F5C04F0D46164611D21B6B7F
S2140096A87BB10948FFF7B0FDBB6A20461B6B324604
S2140096B829465B6A984704460348FFF773FE204628
S2140096C8F8BD4FF40174FAE7C833002070B50026D9
S2140096D8B36A0446B3F5C04F0D4612D21B6BB3F5FA
S2140096E8C04F0ED20848FFF78FFDB36A20461B6BA3
S2140096F829469B6A984704460348FFF753FE2046C8
S21400970870BD4FF40174FAE7C8330020F0B500279F
S214009718BB6A0446B3F5C04F0D461646ADF5177D31
S21400972820D21B6BB3F5C04F1CD21048FFF76CFD58
S214009738BB6A20461B6B40F251225B6A01A9984718
S214009748044630B10948FFF72DFE20460DF5177D73
S214009758F0BD836A32461B6B2946DB6A01A8984728
S2140097680446EFE74FF40174EFE700BFC833002064
S21400977810B50024A36AB3F5C04F10D21B6BB3F51F
S214009788C04F0CD20748FFF73FFDA36A1B6B1B6B45
S214009798984704460348FFF705FE204610BD0124F7
S2140097A8FBE700BFC8330020F0B58FB0044601A819
S2140097B80E461546FFF7EEFE9DF80C30012B12D12B
S2140097C8B5F5002F27D8B4F5002F24D86319B3F5BC
S2140097D8002F20D821462A46304613F06BFE002478
S2140097E820460FB0F0BD0027BB6AB3F5C04F15D2B0
S2140097F81B6BB3F5C04F11D20A48FFF705FDBB6ACD
S2140098082A461B6B314620465B6B9847044605483C
S214009818FFF7C8FDE4E740F20244E1E740F201142E
S214009828DEE700BFC8330020F0B58FB0044601A8B5
S2140098380E461546FFF7AEFE9DF80C30012B1FD1DD
S214009848B5F5002F06D8B4F5002F03D86319B3F57D
S214009858002F13D940F2024420460FB0F0BDE2585C
S214009868013225D104339D42F9D82A46314620468E
S21400987800F082F80028EDD00024EDE70023F2E798
S2140098880027BB6AB3F5C04F15D21B6BB3F5C04FA4
S21400989811D20A48FFF7B8FCBB6A2A461B6B31464A
S2140098A820469B6B984704460448FFF77BFDD3E7A2
S2140098B840F20344D0E740F20114CDE7C833002055
S2140098C870B58EB0044601A80D46FFF763FE9DF8F6
S2140098D80C30012B22D144EA0503C3F30C03002BFA
S2140098E833D1B5F5002F04D940F2024420460EB015
S2140098F870BDB4F5002FF7D82544B5F5002FF3D87A
S214009908204604F5005400F029F8AC4202D000289E
S214009918F6D1E9E70028E7D00024E7E70026B36A8F
S214009928B3F5C04F14D21B6BB3F5C04F10D20A481C
S214009938FFF76AFCB36A29461B6B2046DB6B984721
S21400994804460548FFF72EFDD0E740F20444CDE76D
S21400995840F20114CAE700BFC83300204FF40032B3
S21400996808B5044B9A6637F01BFDB0FA80F040093C
S21400997808BD00BF00900050134610B562B10343FF
S2140099889B070BD14FF40034054B9C6637F004FD5B
S214009998B0FA80F0400910BD0120FCE70020FAE785
S2140099A800900050BFF34F8F0549064BCA6802F473
S2140099B8E0621343CB60BFF34F8F00BFFDE700BFE5
S2140099C800ED00E00400FA0570B5D0B1C9B10E4E3E
S2140099D8431E013913F8014F2046325D02F0030298
S2140099E8012A11F8012F08BF04F12000B55C05F024
S2140099F80305012D08BF2032801A01D1002CE9D1B9
S214009A0870BD0120FCE700BF49D504000348044A9E
S214009A180449121A92102DF02CB800BF40610000BD
S214009A28186300001064002008B5154B83F30A88F5
S214009A3800F030F8FFF7EAFF124B13498B4212D3B7
S214009A480020124B12498B4218D3FDF76BF91868A1
S214009A5850F82240586840F82240013298688242FE
S214009A68F5D30C33EAE70022F8E71C6844F822002E
S214009A7801325C68A242F8D30833E4E70022F8E72C
S214009A880800002094110500A0110500A01105008B
S214009A98A01105004FF40041134B144A70B59A60A4
S214009AA8D3F88820124D42F47002C3F88820114A71
S214009AB805F5005491664FF0FF3222664FF6DF72C6
S214009AC862660222C3F8D020BFF34F8FBFF36F8FB2
S214009AD84FF44036032004F0A7F90320E66004F0AC
S214009AE887F92E6170BD00BF00ED00E00060000041
S214009AF80080004400900050054B1860054B1B6F13
S214009B0803F00703032B01D135F040BA704700BFB6
S214009B1828670020008000502DE9F04104464FF0E9
S214009B2801080C250D4E0CB9BDE8F08194FAA4F096
S214009B38B0FA80F00F2808FA00F2C8BF103824EAF6
S214009B480204CABF05FB006205FB0062B432576810
S214009B58002FE8D09168C0B2B847E4E7E8330020A1
S214009B6808B50C4837F08DF9192004F04FF928B1DC
S214009B78192004F059F9192004F03AF91A2004F0CB
S214009B8845F928B11A2004F04FF91A2004F030F9E4
S214009B98002008BD2CB004002DE9F0410E461746FB
S214009BA8054618B30F2923D80378DBB1013BDBB28F
S214009BB8022B19D8104AD35C6A78D340DB0717D52E
S214009BC80E4BD3F81043ACB937F03AF980463A460C
S214009BD82846314603F064F8404637F02CF920460C
S214009BE8BDE8F0817F23E7E70023E5E72224F6E7D0
S214009BF82124F4E70224F2E77CAE040000C00350F8
S214009C0810B5044610B30378E3B1013BDBB2022B70
S214009C181AD8104AD35C6278D340DB0718D537F0D9
S214009C280FF90122617823788A4030214B4341F2AC
S214009C38100103F1A04303F570335A5037F0FBF8D0
S214009C48002010BD7F23E6E70023E4E72220F8E79C
S214009C582120F6E77CAE040010B5044610B303785E
S214009C68E3B1013BDBB2022B1AD8104AD35C627808
S214009C78D340DB0718D537F0E3F80122617823785C
S214009C888A4030214B4342F2100103F1A04303F50A
S214009C9870335A5037F0CFF8002010BD7F23E6E720
S214009CA80023E4E72220F8E72120F6E77CAE04004C
S214009CB838B50D46044618B311B30378E3B1013B33
S214009CC8DBB2022B1AD8104AD35C6278D340DB0783
S214009CD818D537F0B5F830222378534303F1A0435C
S214009CE803F570335B696278D34003F001032B7089
S214009CF837F0A1F8002038BD7F23E6E70023E4E725
S214009D082220F8E72120F6E77CAE04002DE9F04192
S214009D180D4616469846044600284FD000294DD0D2
S214009D280178002940D04B1EDBB2022B3ED8254ACC
S214009D38D25C6378DA40D20701D4FF2940D1022EDC
S214009D4801D9042E3CD137F07BF823780746FF2B41
S214009D5805D032462046296802F0E8FF28602B68BE
S214009D68013309D12378FF2B06D1174B6078D3F837
S214009D7824142DF04FFC286029684B1C18D00C239F
S214009D88124A03FB0122069BC2F8048093602378DC
S214009D98FF2B04D001230E4A8B40C2F824343846E1
S214009DA837F049F8002007E07F22C2E70022C0E724
S214009DB8384637F040F82D20BDE8F0812220FBE732
S214009DC82120F9E77CAE040000C00350E8330020E9
S214009DD800D0035008B502F059FF054B00F0553087
S214009DE820F05020C3F82004BDE80840FFF794BED2
S214009DF800E0035008B502F049FF054B00F0AA3012
S214009E0820F0A020C3F82004BDE80840FFF784BE71
S214009E1800E003502DE9F04F144605460E469B46D3
S214009E28C36B87B001225B6902A960689847EB6B31
S214009E3801225B6903A93046984702A82DF018FA54
S214009E48074648B10023A37563754FF0FF33A36038
S214009E58002007B0BDE8F08F03A82DF016FA0123FE
S214009E68A375237E04EBC303DE611F846368B342D5
S214009E780ED1206003A82DF02AFA4FF0FF33207584
S214009E88A360237D043B022B26D80023A375DFE7B7
S214009E9823681A1A53425341A37503A82DF017FADC
S214009EA8237D834218BFA77503A82DF0F2F907464D
S214009EB802A82DF0EEF9874218BF002303A818BFA2
S214009EC8A3752DF0EEF9074602A82DF0EAF98742A9
S214009ED81CBF0023A375D4E703A82DF0DAF980B1D8
S214009EE8EB6B022230465B6904A9984704A82DF05C
S214009EF8DFF90346207D032839D8DFE800F0383834
S214009F08040903A8F3E7CC22237E04EBC3031A84D0
S214009F1801F06EFC109B187003A8277E2DF0ADF993
S214009F2804EBC70787F82200237E03A804EBC303C5
S214009F38B3F8209093F822702DF0ABF9804603A86A
S214009F482DF0AFF98246B8F1000F15D0EB6B022260
S214009F5830465B6904A9984704A82DF06EF9607529
S214009F68637D6BB90023A3754FF0000838E0227EA6
S214009F7804EBC2021384CBE703A82DF049F9EEE7F9
S214009F8894F81680B8F1000FEED0B9F1000F09D199
S214009F98DFB10123E375637E002B4FD1012F42D139
S214009FA8677614E06B6C06EB0A015A4286EA0100F3
S214009FB810421CBF0022A2755A1E0A409B1A9945D9
S214009FC8D0D8A37D002BE3D1CEE7E37D43B94FF08D
S214009FD800084B465246314628462CF094FEA060B0
S214009FE8A27D12B123694B4423611A49237E09785E
S214009FF899422AD901332376BBF1000F27D032B312
S21400A008E37D23B3B8F1000F21D1032F1FD0A16839
S21400A0184B1C1CD0109B2246009328460123FFF7B2
S21400A028F9FEA07513E095F8343063B9EB6A01338E
S21400A038CFD1032FCDD10123A376C8E7012FCFD0E8
S21400A048032FC4D1F7E79846C3E70023A375A07D7E
S21400A058FFE600BFA0AE04002DE9F04F0E46984676
S21400A06800238BB004464FF0FF31104617468DF894
S21400A078133001F0A7FBB6F5801F20D2314605AA9B
S21400A08804F108002DF046F8451C014603D1237C50
S21400A098BBB92D2010E0384601F094FB0122394662
S21400A0A820460DF113032CF080FE0028EFD09DF813
S21400A0B8133088F8003000200BB0BDE8F08FB01CD5
S21400A0C8E5D1E56A691C36D12046616A2CF061FD47
S21400A0D80546B31C18BF0123DFF8CC900193636ACA
S21400A0E8626C0293236805A902FB053AE36B052216
S21400A0F85B695046984705A82DF055F92DF078F974
S21400A10850462DF080F94FF0000B824601464B1C56
S21400A11805D0636C81EA0A025B42134211D02946D5
S21400A12820462CF036FD029BAB422CD0BBF1000F2C
S21400A1382CD10546D3E72368ED1A636CB5FBF3F517
S21400A148C7E7484601F03EFB0DF113034946204693
S21400A158019A2CF02AFE034690B1B21C03D0D9F817
S21400A1680020B2420CD19DF8132003930D4B88F8BB
S21400A178002049461A68384613F09CF9039B9B460C
S21400A188D9F80810C3E7BBF1000F82D0B6F5801FD8
S21400A19891D2314698F800307A6804F1080001F048
S21400A1A83FFA88E79CAE0400C43B00202DE9F34143
S21400A1B80446174698460E46184D816AE36A8B424F
S21400A1C801D04B1C02D102B0BDE8F081284601F050
S21400A1D8F9FA0122294620460DF107032CF0E5FD81
S21400A1E838B14346294620469DF80720B847002838
S21400A1F8E9D0A9684A1C04D1696820462CF056FDA7
S21400A2080146012EDAD16B6881EA0302636C5B4271
S21400A2181A4218BF4FF0FF31D0E700BF983B002026
S21400A2282DE9F04F4FF0FF334FF6FF720025044636
S21400A23800F10806C0E909238BB0C362056205630E
S21400A248304688462CF037FF20462CF072FC60BB60
S21400A258204641462CF0EDFC20462CF06AFC60BBFC
S21400A2685E200BB0BDE8F08F2368E26B606C576920
S21400A27800FB0530052205A9B84705A82DF093F878
S21400A288012807460CD1294620462CF0A3FC012FAE
S21400A298024600D10132294620462CF069FC03E02C
S21400A2A82DF0ABF80028EED10135E3699D42DBD3EB
S21400A2B820462CF03EFC0028CAD000254FF0FF3977
S21400A2C84FF6FF73CA46A846C4E90853E36998459B
S21400A2D80AD3A5EB0905012D2CD84FF6FF72636A41
S21400A2E893423CD16720BCE72368E26B606C5769F1
S21400A2F800FB0830052205A9B84705A82DF053F835
S21400A308834605A82DF026F8074658462DF070F81F
S21400A31868B1574538BFC4F82480B94528BFB94640
S21400A328BD4238BF3D46BA46236A0133236208F168
S21400A3380108CBE74FF6FF7300256362E3699D4289
S21400A348CBD2676C2068E36B052207FB05005B69C8
S21400A35805A9984705A82CF0FDFF0135EEE7E26B46
S21400A368676C2068694607FB030055690522A847FD
S21400A37868462CF0EFFF626A2368606C4B4D00FB62
S21400A38802302DF040F84FF0FF33A062E3622A4611
S21400A3986FF00101204605ABFFF75EFE002846D1A8
S21400A3A8AD6829462046E5622CF09FFB206320B95D
S21400A3B82046E16A2CF07AFCE062294620462CF01A
S21400A3C875FC0546A36A9D4233D120462CF060FBF7
S21400A3D800278046B946E36999453CD3B84559D91C
S21400A3E82046616A2CF0D5FB0026054604F1400A93
S21400A3F8B74212D8626C2368694602FB0539E36BDC
S21400A40805225B694846984768462CF0A3FF5346E2
S21400A41802464946E06B2CF0F8FF294620462CF009
S21400A428B8FB0136B0450546E2D1642019E7A56AAF
S21400A438B7E7294620462CF058FB236B29460344E9
S21400A4480746236320462CF031FC0546002FB9D179
S21400A458C4E90B07B6E7636C2568052203FB0955B4
S21400A468E36B05A95B692846984705A82CF09BFF6F
S21400A4782CF0BEFF58B128462CF0C5FF01462046F2
S21400A4882CF033FB636C143B984208BF013709F184
S21400A4980109A0E730462CF00EFE00232046194698
S21400A4A8034AFFF783FE0020DBE600BFF03B0020F0
S21400A4B8A16D03002DE9F041036B9046826B076897
S21400A4C89A4288BF8363426C436A90B002FB037764
S21400A4D8C36B0E46052201A95B69044638469847B1
S21400A4E801A82CF060FF01280146307057D0656C33
S21400A4F8E26B2368606AD2F814C005FB00300522B8
S21400A50806A9E04706A82CF04EFF01284FF00005E4
S21400A51823D0D4E90A3201219342CDE90B458DF8C0
S21400A52834800E958DF83C102AD1194620462CF01A
S21400A538BDFB236B626C14339B1AE06223630C9B8F
S21400A54853B99DF83C303BB1626A616C2368E06B96
S21400A55801FB02312CF0DFFE0C9DE36B05225B69E4
S21400A56801A93846984701A82CF01DFF30702846E8
S21400A578236BA26B9A4288BFA36310B0BDE8F08134
S21400A588237C33B91C490BAA04F1080001F096F89D
S21400A598D5E72046194A0BABFFF708FECFE7237C22
S21400A5A823BB2246164904F1080001F087F8616AC1
S21400A5B820462CF00FFB616A421C20462CF0D8FA85
S21400A5C8054620B9236B626C1344143B236320466C
S21400A5D8A16A2CF06BFB2368A062C01A636CB0FB00
S21400A5E8F3F0606220462CF0A4FBB6E70023204672
S21400A5F8044AFFF7DBFDDAE761AD0000DDAC0000DA
S21400A6083B6E0300D76D030073B50D46D11E4A4254
S21400A6181C461B7E4A419A4226D1296823689942DD
S21400A62822D3636899421FD8114E0DF107033246AC
S21400A638FFF712FDC0B972686B689A4214D19DF88C
S21400A6480730DA1E53425341227E93420CD1636987
S21400A65801336361D4E90323934205D22968A268CB
S21400A66842F8231001332361012002B070BD00BFF9
S21400A678F03B00202DE9F04F9B4689B09DF8483006
S21400A6889046514A0193136907465B450D46C0F04C
S21400A6989580D94653680093B9F1000F7BD0FB6BC1
S21400A6A801225B6905A90098984705A82CF0EDFDDE
S21400A6B8454B1B68984240F0848005A82CF0F1FDB5
S21400A6C80428064615D105A82CF0F2FD009B044682
S21400A6D81E44019B002B3ED1804512D91C46A8EB90
S21400A6E80008384600992CF0E1FAA9EB0409009016
S21400A6F8D2E7FB6B02225B69009806A9984706A872
S21400A708E2E7A0EB08045C4528BF5C46032C4644F9
S21400A718ABEB040B1DD9FB6B294630465B69A208D8
S21400A728984724F0030304F0030A1E441D44DDF88A
S21400A7380480BAF1000FD4D0FB6B012206A930467C
S21400A7485B6998475246284606A912F0B3FE554458
S21400A758C7E7A246EBE7824600F0030302932B18EE
S21400A76803930644039BA6EB0A00A3EB0A05029B89
S21400A7789A4514D1BAF1000FB3D0FB6B012206A993
S21400A7885B6998475246284606A913F04FF80028F2
S21400A798DDD04FF03609484609B0BDE8F08FFB6BB0
S21400A7A8012206A95B6998470422284606A913F0E1
S21400A7B83DF80028EDD1AAF1040AD3E74FF0630963
S21400A7C8E9E74FF06F09E6E71C3C00202DE9F04169
S21400A7D80F4616469846044688B060B390F834503C
S21400A7E8FDB101212CF09AF900210E9BCDE9051147
S21400A7F8CDE902379DF83C30CDF804808DF81C3042
S21400A808237C04968BB90D4901AA04F1080000F0D0
S21400A81855FFDDE90553E06B002E08BF1D462CF0FA
S21400A82816FB284608B0BDE8F0812046044A01AB6E
S21400A838FFF7BCFCEDE70546F3E700BF056E03002F
S21400A84811A600007FB590F84260044601920DF10B
S21400A8580B030A46304611492CF001FB012E05462B
S21400A868E36B17D132465B6903A998479DF80B102E
S21400A878039B019A59B19BB243EA02430122284638
S21400A8880393E36B03A99B69984704B070BD62F312
S21400A8980F03F3E701229B6901A9F5E71C3C00209A
S21400A8A82DE9F04F99B00E460D920A69416C0B934C
S21400A8B81439D31DB3FBF1F3013302EBC302036B68
S21400A8C804469342C0F001820023DFF804940893FC
S21400A8D8E36A48461946059300F074FFD6E903373D
S21400A8E807930B9B022B4DD1CC2F40F0D7810D9BA5
S21400A8F83BB1314620462CF008FB656C14900120CD
S21400A90844E00120079B656C1B68149300F0010067
S21400A91800280CBF04230823782F0E9349D8059ADD
S21400A9286B1E1340ED1A3B1D9D423CD2002F3DD0B6
S21400A938082D3ED80023042506934FF0040A3368F2
S21400A94806990B98C9F80030C9F810702CF0C3FCAB
S21400A9584FEA9A030F93059B89F814000393002384
S21400A96809930C9304930A93616C039B4A1E1A403E
S21400A9788B1A27B35544AB4223D8236B5B1A134470
S21400A98823632FE1782F656CB9D8F07D0D9B002BDB
S21400A998BCD0E36B01225B69706816A9984716A8B5
S21400A9A82CF077FCB4E700250695C6E7042506973D
S21400A9B8C3E7012300254FF0080A0693BFE753456F
S21400A9C8DBD3A3EB0A029742039BB84628BF904600
S21400A9D89742534428D90122D9F8101089F817202D
S21400A9E88F4226D10399C9F80410049299F81720C3
S21400A9F80AB399F818100398CA1C09EBC2025060EB
S21400AA0804980131A2F80880907289F81810B8F1F5
S21400AA18000F07D00B9A022A40F08180099A72B17B
S21400AA28012209929B46ABE0049A002A18BF03222B
S21400AA38DBE70222D9E7039AC9F80420E7E70C9A6D
S21400AA484244032AEED9E26B1846956914A90122F6
S21400AA580993A847099B05460028E1D03D2D40F0FC
S21400AA681E8104F1080303932368059A606CA2EB21
S21400AA78030ABAFBF0FA00FB0A302CF0C4FCE16AC1
S21400AA88804620462CF012F9A26A824200F00F8116
S21400AA98626CD9F80830511E0B40216B2768891A5A
S21400AAA80B442363089BE062DF1BB7FBF2F7BA454B
S21400AAB840F0FA80059BB3EB080A12D0E36B4FEA26
S21400AAC89A0241469B6998478346E36A059A534427
S21400AAD8E362236B03989B1A434423632CF0EBFA38
S21400AAE8DA462368616CE06B01FB07312CF000FC4A
S21400AAF820462CF01EF820462CF01BF92063BAF1ED
S21400AB08000F00F0D4803269616CD31D1439B3FB92
S21400AB18F1F3013302EBC3029042A5D2BFE00D9ACF
S21400AB28002A77D1B8F1030F4FEA98026ED9E16B85
S21400AB3818468D6907991093A847109B0546C0B913
S21400AB4818F0030515D0079A28F0030B02EB0B0143
S21400AB589B444FF0FF3215A815922A46109312F020
S21400AB68A9FCE26B5846956915A90122A84705462F
S21400AB78109B9B46079A42440792002D40F08B8014
S21400AB88049B16A80193069B009399F81420434645
S21400AB98316800F0CDFDE36B0F9A9B69039816A900
S21400ABA89847039A051E089B18BF13460893434602
S21400ABB85246204603992CF0A6F8236B08F10302A8
S21400ABC8A3EB0A0322F003029B1AC9F808002363C2
S21400ABD8002D7FF443AF0C9BA7EB080743440C9368
S21400ABE8CDF80CB0204603992CF060F800250390A9
S21400ABF8002F7FF4B9AE364A3168936804F108002E
S21400AC08E36252680B9B00F00BFD49E09B46454605
S21400AC1807999EE79B4606F120021092F27D70681F
S21400AC28A2B1002296F818C00A99D5B2AC4511D937
S21400AC38109D02F1010E35F832508D4228D90E9833
S21400AC4806EBC2020144D069084403E00E9A0A994A
S21400AC580A441044E26B15A9556901221193A847C6
S21400AC68159A0A9B1392E26B04339569584601229B
S21400AC7813A90A93A847119B054603EB0802A2EB03
S21400AC880B02042A7FF679AF28B90BF1040BC5E747
S21400AC987246491BC9E7CDF820B088E770252F46CD
S21400ACA8384619B0BDE8F08F4FF0000A19E7326948
S21400ACB8616CD31D1439B3FBF1F3013302EBC30205
S21400ACC8236B9342BFF404AEE9E71C27E8E700BF0E
S21400ACD8C43B0020032A2DE9F34106460D461746D5
S21400ACE81C4606D1237A012B23D0012002B0BDE8EA
S21400ACF8F081DFF86080096842460DF10703FFF728
S21400AD08ABF960600028EDD19DF80720237A032A66
S21400AD18E8D0D8F804106A689142E3D1012B296973
S21400AD28D4F80CC007D172690CEB0103934202D920
S21400AD382074207CDAE708316144E1603B46012252
S21400AD4829463046FFF7ACFD60600028CAD00020D0
S21400AD58CCE700BFF03B00202DE9F341089C032A0E
S21400AD681746266806D1237A012B24D0012002B084
S21400AD78BDE8F081DFF89080304642460DF10703C3
S21400AD88FFF76AF960600028EDD12568D8F8040056
S21400AD98A96AD5F844C04840CCF100031840227A86
S21400ADA8E1D1012A09D1E268D8F810301344726953
S21400ADB8934202D92074207CD9E72868EB6A1B1ACC
S21400ADC8081AB3FBFCF3B0FBFCF083420BD1706CA3
S21400ADD8F36A421E1340326B121A13442846336332
S21400ADE82BF064FFE862D8F81020E36808321344B2
S21400ADF8E36001223B4604492068FFF751FD606086
S21400AE080028B0D00020B2E7F03B00202DE9F04142
S21400AE180025604B0E46D3F8008004461D6018B91E
S21400AE2821252846BDE8F08190F8347007B30A68F3
S21400AE3803689A4240F0A3804A6843689A4240F002
S21400AE489E808A6883689A4240F09980CA68C36878
S21400AE589A4240F094800A6943699A4240F08F808B
S21400AE688A69C36B9A4240F08A804B698361D8E747
S21400AE7868223946856B12F08DF9D6E902123368D6
S21400AE8804F1080023607368A5636360336963612F
S21400AE987369A3612CF021F9B36904F14000E363F8
S21400AEA89B68984720B9676C17B16368B3FBF7F7D8
S21400AEB894F84330E761002BB2D00023656C236614
S21400AEC8002D64D0002F62D02368B3FBF5F205FB93
S21400AED81233002B55D16668B6FBF5F305FB1363F2
S21400AEE8002B4ED120462BF0F0FDA3690433034413
S21400AEF89E4248D340F634726369CC3B934244D8AA
S21400AF08B5F5805F43D3032120462BF007FED4E92E
S21400AF180001E36B1B6898470546E36B0220DB6875
S21400AF289847CDB941462046FFF77AF96428054682
S21400AF3804D141462046FFF773F90546666C5DB9AD
S21400AF48236A2046143E5E432BF0BFFDA3690433F4
S21400AF5803449E4238BF5A25002D0CBF0123002308
S21400AF6884F8343007D1D4E900010B4A136801335A
S21400AF7813602CF04CF9E06B2BF069FF51E75D2568
S21400AF884FE759254DE75A254BE75F2549E75B25E7
S21400AF9847E700BF54350020503500202DE9FF4113
S21400AFA80C4616461F46054680B390F834307BB3E9
S21400AFB8B1F5801F2ED2DFF8608001212BF0AEFDA0
S21400AFC82146424628460DF10F03FFF745F804468A
S21400AFD870B99DF80F30012B11D1D8F81030BB424C
S21400AFE812D10246009031462846FFF743FB044636
S21400AFF8E86B2BF02CFF204604B0BDE8F081022B4E
S21400B00814BF2D246024F3E76324F1E72124F2E734
S21400B0181124F0E72924EEE71C3C00202DE9F04334
S21400B02885B00C4617461E460546DDF8308098B3B0
S21400B03890F8343093B3B1F5801F31D2DFF86490BE
S21400B04801212BF06BFD21464A4628460DF10F03D9
S21400B058FFF702F8044688B99DF80F30012B14D183
S21400B068D9F8102006EB08039A4213D300904346FB
S21400B078324639462846FFF7FDFA0446E86B2BF0B9
S21400B088E6FE204605B0BDE8F083022B14BF2D244B
S21400B0986024F3E76324F1E72124F2E71124F0E7BC
S21400B0A82924EEE71C3C002073B50C4616460546D8
S21400B0B830B390F834302BB3B1F5801F24D2012179
S21400B0C82BF02CFD21462846104A0DF10703FEF703
S21400B0D8C3FF044680B99DF80730032B0CD0022B1B
S21400B0E80CD1284609492BF010FF3060E86B2BF08E
S21400B0F8AEFE204602B070BD2D24F7E76124F5E7C2
S21400B1082124F6E71124F4E72924F2E71C3C002062
S21400B1182DE9F3411E4600230C46174605463360C4
S21400B12850B390F834304BB3B1F5801F28D2DFF80F
S21400B138548001212BF0F2FC2146424628460DF1A8
S21400B1480703FEF789FF0446A0B99DF80730032BCE
S21400B15810D0022B03BF01233B600423D8F810301D
S21400B16818BF38603360E86B2BF071FE204602B0DB
S21400B178BDE8F0812D24F6E72124F7E71124F5E74A
S21400B1882924F3E71C3C002073B50446056B2BF016
S21400B1989CFC636E03449D422CBF0023012385421A
S21400B1A894BF00252D1A207C84F85030656584F8F5
S21400B1B85800A8B100230C4E1A4619462046009699
S21400B1C82BF067FF002305461A46194620460096C8
S21400B1D82BF068FFE3682844984294BF0020C01A02
S21400B1E8E06502B070BD00BFFFFF0F002DE9F34712
S21400B1F81E4643690446B342884617469DF828907B
S21400B2084ED300258DF8075020462BF05EFCD4F868
S21400B21830A082450AD2236AB5EB430F06D2002235
S21400B22820460DF10701FFF745F9B8B39DF807303A
S21400B238012B05D1002220460DF10701FFF73AF948
S21400B248B9F1030F06D0314620462BF02EFC256BAD
S21400B258854227D3144D4FF0FF31284600F0B2FA46
S21400B2684B46294600222046C5E90376C5F80080E5
S21400B278FFF716FB236E054663B12046FFF784FFEB
S21400B28894F8503013B994F858301BB1236E04F173
S21400B29850009847284602B0BDE8F0870135B3E766
S21400B2A86225F7E71C25F5E7F03B00202DE9FF416E
S21400B2B80F4690461E46054698B390F8343093B32A
S21400B2C8B1F5801F31D21A4C02212BF027FC2246FA
S21400B2D8394628460DF10F03FEF7BEFE024678B142
S21400B2E8012342460093394633462846FFF77EFF39
S21400B2F80446E86B2BF0ABFD204604B0BDE8F081B1
S21400B3089DF80F30012BEBD12169B142E8D10093AB
S21400B318414633462846FFF7ADF904460028DFD1F4
S21400B328E7E72124E8E71124E6E72924E4E700BF55
S21400B3381C3C00202DE9F04790F8423086B0012BDF
S21400B34805460391A1EB020740F0AA80FF2F03D819
S21400B3581E464FF0640807E00226012B14BF4FF084
S21400B36832084FF06408013600244FF6FF79DFF8FC
S21400B37844A195F84230012B14BF322364239C4223
S21400B38802D35FFA88F40DE005AB224651462846FC
S21400B3982BF099FD95F84230012B059B34D14B458F
S21400B3A82DD1E4B295F84230012B14BF3222642224
S21400B3B8121BB24217D3012E39D10022012B059752
S21400B3C88DF8132027D1082205A90DF113002CF0BB
S21400B3D836F89DF81330059A42EA03222146284695
S21400B3E8FFF730FA40B10223324900932846CC23AF
S21400B3F8096803AAFFF7FAFE06B0BDE8F087DBB2D5
S21400B40803B902340134B4E7591CCAD09BB2002BE6
S21400B418F8D10134F6E7102205A90DF113002CF037
S21400B4280EF89DF81330059A42EA0342D6E7039AC7
S21400B438012B059223D10823202205A90DF113001C
S21400B4488DF813302BF0FBFF9DF8132012022146CF
S21400B4582846FFF7F7F995F84230611C012BC9B268
S21400B4681AD10028BFD12846BDF81420FFF7EAF9FC
S21400B4780028B8D10234BDF81620E1B2AFE7102391
S21400B488202205A90DF113008DF813302BF0D7FFF5
S21400B4989DF813201204DAE70028A4D1059A9EE73F
S21400B4A8B7F5803F4FF00106BFF457AF4FF03208AC
S21400B4B85AE700BF1C3C002070B586B00E4605460D
S21400B4C80392A0B390F834309BB3B1F5801F32D204
S21400B4D802212BF023FB31462846184A0DF11703A4
S21400B4E8FEF7BAFD044618B99DF81730032B0ED19F
S21400B4F80223314600932846CC2303AAFFF776FE9C
S21400B5080446E86B2BF0A3FC204606B070BD022B61
S21400B5180BD10A4928462BF0F8FC039902468142CB
S21400B528EFD02846FFF706FFEAE76124E9E721247B
S21400B538EAE71124E8E72924E6E700BF1C3C0020D8
S21400B548F7B50C461646054668B390F8343063B32C
S21400B558B1F5801F2BD202212BF0E0FA21462846AF
S21400B568144A0DF10703FEF777FDC0B99DF80730BA
S21400B578032B14D0022B14D10E4928462BF0C5FCF9
S21400B588471C024639462846FFF7D4FE044606B14D
S21400B5983760E86B2BF05BFC204603B0F0BD2D242B
S21400B5A8F7E76124F5E72124F6E71124F4E72924D0
S21400B5B8F2E700BF1C3C002030B50C46054685B0B7
S21400B5C828B390F8343023B3B1F5801F23D2022174
S21400B5D82BF0A4FA0DF10F03214628460F4AFEF772
S21400B5E83BFD034688B99DF80F20032A0DD0032299
S21400B5F82146009202462846FFF7F8FD0446E86B07
S21400B6082BF025FC204605B030BD2D24F7E7212475
S21400B618F8E71124F6E72924F4E700BF1C3C0020CD
S21400B6282DE9F043466886B3056898464FF0000C47
S21400B638A946AE4655F83C400CF1010CC4F3130776
S21400B648013401D0B94217D0B4450EF1080EF1D135
S21400B6582F46002403E0B44207F1080712D055F835
S21400B668343001340133F6D1C1F3130141EA0851ED
S21400B678C7E90012BDE8F08341EA0851CEE9001296
S21400B688BDE8F083B8F1030F03D101230372BDE8C8
S21400B698F083002303E0B34209F10809F5D055F812
S21400B6A833400133C4F30754032CF4D1C1F3130316
S21400B6B843EA0853C9E90032BDE8F0832DE9F041B2
S21400B6C80646406882B0B8B10F46904600243368F4
S21400B6D853F8345003EBC403C5F30752C5F31301FC
S21400B6E8013506D05B683046CDF80080B84718B1FB
S21400B6F8706801348442EAD302B0BDE8F08100BF26
S21400B708024B1968024B1868FFF780BB2C670020AD
S21400B7184C67002008B535F086FB014B186008BD5D
S21400B728483C0020014B186835F078BB483C0020A0
S21400B73873B504462248012A00EAC1119DF818503C
S21400B74823F07C4007D9961E012E28D9073303F02C
S21400B7587F03194308E09DF81C300A43DB0603F014
S21400B768C053134343F060410023C4E900108DF82A
S21400B7780730B5B1202221460DF107002BF05FFEF9
S21400B7881A220DF10700211D2BF059FE08206368C8
S21400B7989DF8072043EA8263636002B070BD1143D8
S21400B7A8E2E71B220DF1070021462BF048FE23682E
S21400B7B89DF80720042043EAC2632360EDE700BF34
S21400B7C880FFFF0738B5094B0D461A680021044666
S21400B7D811F0E0FC00234FF0FF322383C4E9002574
S21400B7E82361A260E382A37638BD00BF9CAE040046
S21400B7F80138C0B205289ABF014B185C0120704773
S21400B808A1AE04002DE9F0410746154600240E4671
S21400B818596888B0490A012922464FEA510104F1BD
S21400B8280104F8D8DC78997824031B88C90201F447
S21400B838006104F480540C43C3F30A035203234400
S21400B84892B24FF000089C18274B6FEA0444039303
S21400B85825F07843ED4302A90DF107001B22029359
S21400B8688DF807802BF0EBFD9DF80720029B02A9B8
S21400B87843EAC2630DF107001B2225F078450493BE
S21400B88802958DF807802BF0DAFD9DF80720029BBD
S21400B8986FEA144443EAC26305934FF0FF330794F4
S21400B8A8069307A9BB69012206F110009847BB69F1
S21400B8B805A90446012206F108009847BB694045D9
